:020000040000FA
:06000000020B4F02023862
:03002B000207F1D8
:030033000206AB17
:0300430002081799
:0300530002016D3A
:03006B0002068505
:100083000201CC010105030101FF0F10FEFFCB2A82
:1000930000000000632A00000000FF000000FF00D2
:1000A300010020FD000200004D1B000000000000C5
:1000B300B31B000000000000351B0000000000001F
:1000C300000000000000000000000000000000002D
:1000D300000006FFFF060008DF1A00000001F11F01
:1000E300F71F0000FD1F03200000000000000000B8
:1000F300000000000000000000001020202020204D
:10010300202020202020202020202001080401007E
:100113000100056D80012B8101010104001C1B00FE
:100123000000E8030000FFFFE81BE8030000640091
:100133006400B801A0BB0D00A0BB0D00020200F8D3
:10014300FF070502070401051E02051E020A0A0134
:1001530002080803B80B02803E0102FEFFE8030A0F
:10016300050001FFFF010A1401E0C0E074F112046D
:100173004FA2AFE433F509D2AF85A708AFA1EF557E
:1001830008FE74105E60061218CB75A1EF74085E4A
:1001930060081218D175A1F78024EFA2E092F0E570
:1001A30008A2E082F05017906198E0F89007A9E068
:1001B300C398A2D265D0335002E8F075A1FEE509D9
:1001C300A2E092AF7F020204AEC0E074F212044FC9
:1001D300A2AFE433FED2AF9061A4E0F8759B00E5D3
:1001E3009158540860087591F71219198023E59105
:1001F30058541060087591EF12191F8014E591A2ED
:10020300E092F0E8A2E082F05007E0C2E0F0121AB8
:10021300699061A3E0F8E5E9585404600E121A3FAF
:1002230075E9FB906193E0A2E640F2EEA2E092AFA3
:100233007F010204AEC0E074F212044FA2AFE433B4
:10024300FED2AF9061A5E0F8E5BF5854046006758F
:10025300BFFB121A8180D4C3E498F8E499F912021F
:100263009B8026C3E49AFAE49BFBE920E7E91202A8
:100273009BE498F8E499F922C3E498F8E499F91215
:10028300029BE498F8E499F9C3E49AFAE49BFB220D
:10029300EB20E7CFE920E7E0B90010BB0008E88ACC
:1002A300F084F8AAF022E4FBC8FA22EB70227B1058
:1002B300C833C8C933C9335007C39AC3DBF28006B6
:1002C3009A50012ADBEAC833F4C8C933F4C9FA22C5
:1002D30075F008E4C833C8C933C933C99AC99B50F8
:1002E30004C92AC93BD5F0ECFBC833F4C8E4C9FA06
:1002F30022080808EAC0E0EBC0E086F0E7A4FA1899
:100303000986F0E7A42AFA180986F0E7A42AFA185E
:100313000986F0E7A42AFA1986F0E7A4FBE5F02A98
:10032300FA190886F0E7A42BFBE5F03AFA190886D8
:10033300F0E7A42BFBE5F03AFA18180986F0E7A4D6
:10034300C5F02BFBE43AFA1908E7C5F0C6A426F674
:10035300E5F03BFBE43AFA1886F0E7A4F6E5F0088B
:1003630026F6E43B08F6E43A08F6D0E0FBD0E0FAE0
:1003730022E4CFC0E0E4CEC0E0E4CDC0E0E4CCC0F2
:10038300E075F020E626F608E633F608E633F608CD
:10039300E633F6181818EC33FCED33FDEE33FEEFBD
:1003A30033FFC3EC9709ED9709EE9709EF971919F6
:1003B30019400FFFEC97FC09ED97FD09EE97FE1925
:1003C3001906D5F0BFECF709EDF709EEF709EFF7DA
:1003D300191919D0E0FCD0E0FDD0E0FED0E0FF22F7
:1003E3002518C582C0E0E51934FFC583C0E0E518D0
:1003F300C3958224F810AF08858319858218800875
:10040300858319858218D2AFCEF0A3E520F0A378B7
:1004130008E608F0A3DEFAEFF0A3E58124FAF8E694
:1004230008F0A3E608F0A3E608F0A30808E608F03E
:10043300A3E608F0A315811581D0E0FED0E0F815FE
:100443008115811581E8C0E0EEC0E022C0D02518F7
:10045300C582C0E0E51934FFC583C0E0E518C39544
:100463008224F310AF088583198582188008858359
:1004730019858218D2AFC8F0A3E9F0A3EAF0A3EB81
:10048300F0A37908E709F0A3D8FAECF0A3EDF0A301
:10049300EEF0A3EFF0A3D0E0F0A3D0E0F0A3D0E020
:1004A300F0A3E520F0A3E5F0F0A3228519838518D6
:1004B30082E0C0E0A3E0F9A3E0FAA3E0FBA378089D
:1004C300E0F608A3DFFAE0FCA3E0FDA3E0FEA3E06F
:1004D300FFA3E0C0E0A3E0C0E0A3E0F5D0A3E0F514
:1004E30020A3E0A3F5F010AF088583198582188057
:1004F30008858319858218D2AFD082D083D0E0F8E3
:10050300D0E032120BE1B90003020545E490030188
:10051300788C791A8002F0A3D8FCD9FA7A8C7B1CE8
:1005230090008678E879018015E493A3AD82AE83C9
:100533008A828B83F0A3AA82AB838D828E83D8E9D0
:10054300D9E77582CF7583DF74051208DA75827B6C
:1005530075832674001208DA0375F0108E1A8F1B48
:1005630085821F85831E851882851983E0CEA3E0CB
:10057300CF851F82851E83EBC9EAC8EDCBECCAC3C6
:10058300E833C8E933C9EA33CAEB33CBC3EA9EF590
:100593001DEB9FF51CB35004AB1CAA1DEC33CCED33
:1005A30033CDD5F0DAAE1AAF1B22D083D082ECC0A4
:1005B300E0EDC0E0E493A3FCE493A3FDED4C600DF8
:1005C3001206C9EC24FFFCED34FFFD80EFE493A396
:1005D300FCE493A3FDED4C600D12079CEC24FFFC9F
:1005E300ED34FFFD80EFD0E0FDD0E0FCE493A3C049
:1005F300E0E493C0E022D083D082E9C0E0E493A397
:10060300C386F0C5F095F0F908E493A386F0C5F02E
:1006130095F0700BE493A3C3994005E9048002A30A
:10062300E475F002A42582F582E5F03583F583D0E5
:10063300E0F9E493A3C0E0E493C0E0228519838545
:100643001882E0A3FEE0A3F5207808E0A3F608DF14
:10065300FAE0A3FFE0A3C0E0E0A3C0E0E0A3C0E0B2
:10066300E0A3C0E0E0A3C0E010AF08858218858353
:10067300198008858218858319D2AFD083D082026E
:1006830008E0C0E074F212044FA2AFE433FED2AF2D
:10069300E589A2E150031217ED758900C2C5EEA2E8
:1006A300E092AF7F010204AEC0E074F212044FA2E5
:1006B300AFE433FED2AFE58BA2E050031217ED7522
:1006C3008B00C2E880D8C0E0C3E49396087401931A
:1006D3009618400FE49366700808740193661870C7
:1006E300007019A3A3C3E49396087401939618A307
:1006F300A3400DD0E0D0E0D0E00205E9A3A3A3A37B
:10070300A3A3D0E022D083D082C5F0E493A3C5F0A5
:10071300C395F0F5F0E493A3C395F04005E5F00429
:100723008001E475F002A42582F582E5F03583F5B6
:1007330083E493A3C0E0E493C0E0227404800474D0
:10074300028000CCC0E0EDC0E0E518C39CCCAD193D
:1007530050011D10AF068C188D1980068C188D1949
:10076300D2AF12085CD0E0FDD0E0FC22740280001E
:10077300CCC0E0EDC0E0E518C39CCCAD1950011D21
:1007830010AF068C188D1980068C188D19D2AF12F4
:10079300083AD0E0FDD0E0FC22C0E0C0F088F0E4ED
:1007A300936670080874019366187000A8F0A3A3F9
:1007B300700BD0F0D0E0D0E0D0E00205E9A3A3D0E5
:1007C300F0D0E022D083D082CCC0E0E493A36006D3
:1007D3001208BB1470FAE493A360061209C21470E2
:1007E300FAD0E0FCE493A3C0E0E493C0E022C0E0CD
:1007F300C0D0E8C0E0E9C0E0A9A8D2AFC2C7E9A26F
:10080300E7E433F8E9A2E792AFD0E0F9D0E0F8D01B
:10081300D0D0E032C0E074F212044FA2AFE433FE52
:10082300D2AFC2C0E5D1A2E4500312183BEEA2E05E
:1008330092AF7F010204AECAC0E0E493A3C582CCA9
:10084300C582C583CDC583F0A3C582CCC582C583CC
:10085300CDC583DAE5D0E0CA22CAC0E0E0A3C582F1
:10086300CCC582C583CDC583F0A3C582CCC582C563
:1008730083CDC583DAE6D0E0CA22700908080822CE
:100883006016181818C6C333C608C633C608C6335D
:10089300C608C633C6D5E0EA22C008C3E096F50809
:1008A30008A3E096420808A3E096420808A3E0964E
:1008B30045087001D3D00822C0E0E493A3D39C5031
:1008C30010E493A3C39C400AD0E0D0E0D0E0020739
:1008D300E4A3A3A3D0E022C09FF59FE473D09F229B
:1008E300D083D082C09FE493C0E0740193C0E074CE
:1008F3000293F59F227404800A74038006740280B5
:10090300027401C0E0F404120913D0E0120B8C222C
:100913002518F58210AF08F518400C15198008F555
:100923001840021519D2AF8519832200C0D02518AB
:1009330010AF08F518500C05198008F5185002057A
:1009430019D2AFD0D022BB0102E722C082C0838973
:10095300828A83BB0003E08002E493D083D08222A7
:100963006016080808C6C313C618C613C618C613EC
:10097300C618C613C6D5E0EA22C3E0C696F608A396
:10098300E0C696F608A3E0C696F608A3E0C696F678
:10099300222518F8E43519F9222518FAE43519FB4C
:1009A300222518FCE43519FD22251810AF08F51887
:1009B300400C15198008F51840021519D2AF22C052
:1009C300E0E493A36C7009D0E0D0E0D0E00207E448
:1009D300A3A3D0E022E76670100809E766700A084F
:1009E30009E76670040809E76622C3E09608A3E0F6
:1009F3009608A3E09608A3E096A2D265D03322E03E
:100A030066701008A3E066700A08A3E06670040825
:100A1300A3E06622C3E096F008A3E096F008A3E003
:100A230096F008A3E096F022C3E697F60809E69746
:100A3300F60809E697F60809E697F622C3E49396C3
:100A4300087401939608740293960874039396228C
:100A5300E627F60809E637F60809E637F60809E651
:100A630037F622E026F608A3E036F608A3E036F6CA
:100A730008A3E036F622700422600D18C6C333C6FD
:100A830008C633C6D5E0F41822E493F6087401933C
:100A9300F608740293F608740393F622E657F608F1
:100AA30009E657F60809E657F60809E657F622E07D
:100AB30056F608A3E056F608A3E056F608A3E05658
:100AC300F622E056F008A3E056F008A3E056F0083B
:100AD300A3E056F022E026F008A3E036F008A3E0F6
:100AE30036F008A3E036F022E647F60809E647F6B3
:100AF3000809E647F60809E647F622E4C396F6082E
:100B0300E496F608E496F608E496F622600D08C625
:100B1300A2E713C618C613C6D5E0F322C6F4C60867
:100B2300C6F4C608C6F4C608C6F4C622C3E79608C8
:100B330009E7960809E7960809E79622C3E09608AD
:100B4300A3E09608A3E09608A3E0962275D000756B
:100B5300813F75180175190300020506E6F008A325
:100B6300E6F008A3E6F008A3E6F022600C08C6C38B
:100B730013C618C613C6D5E0F422E0F608A3E0F6C0
:100B830008A3E0F608A3E0F622CAC0E0E6F0A30853
:100B9300DAFAD0E0FA22E8F0A3E9F0A3EAF0A3EB53
:100BA300F022E0F8A3E0F9A3E0FAA3E0FB22ECF0E3
:100BB300A3EDF0A3EEF0A3EFF022E0FCA3E0FDA38E
:100BC300E0FEA3E0FF22EAF0A3EBF0A3ECF0A3ED39
:100BD300F022E0FAA3E0FBA3E0FCA3E0FD22E5C7DB
:100BE30054F84401F5C77901222518F582E4351933
:100BF300F58322C2AF75D69F020000221208E34A92
:100C0300A5031208E307A9031208E31BA9031208AB
:100C1300E325A9031208E32FA9031208E339A90363
:100C23001208E352A9031208E35CA9031208E3C9FB
:100C3300A9031208E3D4A9031208E3FCA9031208C9
:100C4300E307AA031208E36CAA031208E377AA03D3
:100C53001208E39BAA031208E3BFAA031208E331B5
:100C6300AB031208E37AAB031208E396AB03120853
:100C7300E307AC031208E353AC031208E39CAC0391
:100C83001208E3DAAC031208E35BAD031208E302D4
:100C9300AE031208E3D1AF031208E336B003120820
:100CA300E364B1031208E38AB1031208E3D2B20387
:100CB3001208E30CB6031208E30AB8031208E3D5DB
:100CC300B9031208E36EBA031208E36FBC031208F8
:100CD300E324BD031208E35DBD031208E3C3BD03B0
:100CE3001208E3CDBD031208E3F6BF031208E33590
:100CF300C1031208E38CC1031208E337C2031208CD
:100D0300E3E7C3031208E334C5031208E354C5033E
:100D13001208E3A9C5031208E3AAC6031208E3D223
:100D2300C6031208E331C7031208E329C8031208F4
:100D3300E3A0C8031208E3B3C9031208E321CA03FB
:100D43001208E320CB031208E37ACD031208E3A3CE
:100D5300CD031208E309CF031208E38BD003120873
:100D6300E3E2D0031208E390D1031208E335D20380
:100D73001208E38ED2031208E34CD3031208E3DE16
:100D8300D3031208E33DD4031208E37FD40312080C
:100D9300E3B0D4031208E307D6031208E30080028A
:100DA3001208E33280021208E36B80021208E3297F
:100DB30082021208E3FF82021208E35E8302120832
:100DC300E37484021208E3C084021208E34E87022C
:100DD3001208E3288A021208E36F8B021208E30762
:100DE3008C021208E3138C021208E35C8C021208D3
:100DF300E39E8D021208E3948E021208E3BE8E0274
:100E03001208E3148F021208E36D8F021208E3E065
:100E13008F021208E31692021208E3989302120853
:100E2300E38394021208E3CD95021208E3059802C6
:100E33001208E3029B021208E3119B021208E3A5C6
:100E43009B021208E3509C021208E3939C021208CF
:100E5300E3DC9C021208E32C9D021208E3909D023E
:100E63001208E3029E021208E31E9E021208E34DDB
:100E73009E021208E38C9E021208E3879F02120867
:100E8300E336A0021208E3B3A2021208E3E5A302C9
:100E93001208E3BDA4021208E33FA5021208E3749B
:100EA300A9021208E3A3A9021208E3FEA902120889
:100EB300E331AA021208E3A9AA021208E3DCAA0298
:100EC3001208E33DAB021208E38DAB021208E35AAA
:100ED300AC021208E313AD021208E3D7AD02120805
:100EE300E351B0021208E3B3B1021208E304B30200
:100EF3001208E328B4021208E32BB4021208E35ADF
:100F0300B4021208E352B6021208E311B702120840
:100F1300E340B7021208E35EB8021208E326B902FF
:100F23001208E3E4BA021208E316BB021208E358FC
:100F3300BB021208E357BC021208E3CABC02120840
:100F4300E3F3BE021208E352BF021208E3A6BF0294
:100F53001208E3D5C1021208E3B8C2021208E3740F
:100F6300C3021208E388C3021208E39CC3021208F7
:100F7300E3C9C3021208E3F9C3021208E3B4C502CA
:100F83001208E3C6C6021208E31BC7021208E36491
:100F9300C7021208E38BC7021208E353C802120800
:100FA300E3F9C8021208E37FCA021208E3C6CA02C1
:100FB3001208E338CB021208E38DCC021208E336A1
:100FC300CD021208E36ACD021208E382CD021208B1
:100FD300E325CE021208E3A1D0021208E349D202AC
:100FE3001208E367D2021208E385D2021208E35122
:100FF300D3021208E39FD6021208E33181011208DB
:10100300E36981011208E36986011208E3AF8601EF
:101013001208E3E587011208E34A88011208E3BFD7
:1010230089011208E3C98C011208E3F28D01120849
:10103300E30598011208E39598011208E37F9B01E9
:101043001208E38C9C011208E3EF9C011208E337BA
:101053009E011208E3A5A0011208E337A2011208BA
:10106300E3C4A2011208E3E3A3011208E370A4019D
:101073001208E37AA4011208E3A2A4011208E342CE
:10108300A5011208E32DA6011208E3FAA60112082E
:10109300E317A7011208E340A7011208E36DA701B4
:1010A3001208E3B4A9011208E383AA011208E3C2F8
:1010B300AA011208E344AB011208E3E5AB011208ED
:1010C300E317AC011208E35EAC011208E391AC0133
:1010D3001208E3D5AC011208E324AD011208E32999
:1010E300AD011208E385AD011208E3C9AD01120891
:1010F300E3A3AE011208E308AF011208E36EAF01E8
:101103001208E3E9AF011208E351B3011208E354F3
:10111300B4011208E3D2B5011208E3E8B8011208DA
:10112300E38AB9011208E3D3BB011208E38EBC01C1
:101133001208E3CDBC011208E3A5BE011208E3C205
:10114300BE011208E3CBBE011208E3D4BE011208AC
:10115300E3DFBE011208E3FEBE011208E3A2C001F1
:101163001208E3FFC0011208E309C1011208E313E7
:10117300C1011208E372C1011208E3BCC1011208E4
:10118300E3BDC2011208E314C3011208E325C4013D
:101193001208E36EC4011208E328C5011208E33FF5
:1011A300C6011208E314C7011208E35BC801120861
:1011B300E35FC9011208E358CA011208E370CA01C8
:1011C3001208E3A7CA011208E3B1CA011208E3BC7B
:1011D300CA011208E3DACA011208E322CB0112089A
:1011E300E380CB011208E3A7CB011208E3B9CB01DB
:1011F3001208E36ECC011208E3A7CC011208E3C97D
:10120300CD011208E31CCE011208E302CF0112083C
:10121300E329CF011208E399CF011208E315D001A6
:101223001208E371D1011208E398D2011208E35ABC
:10123300D3011208E328D4011208E3E6D40112080B
:10124300E3CED5011208E378D6011208E3E0D60114
:101253001208E395D7011208E3F1D7011208E34915
:10126300D8011208E30FD9011208E332D901120899
:10127300E3EDD9011208E30FDA011208E370DA0192
:101283001208E3A0DC011208E399DD011208E3452B
:10129300DE011208E366E0011208E3AFE001120881
:1012A300E3FAE0011208E356E1011208E3B4E101B5
:1012B3001208E3D8E1011208E3FCE1011208E3316B
:1012C300E2011208E359E2011208E39EE201120867
:1012D300E3F2E2011208E34BE3011208E345E40100
:1012E3001208E3E3E5011208E328E6011208E351DB
:1012F300E6011208E3DAE6011208E34DE7011208FA
:10130300E35BE7011208E37FE7011208E3D5E70196
:101313001208E3F0E7011208E3ABE8011208E3D790
:10132300E8011208E31AE9011208E37DE901120852
:10133300E38BEB011208E3B7EB011208E372EC0154
:101343001208E356ED011208E3EAED011208E30087
:1013530080051208E33880051208E3598005120856
:10136300E39B80051208E3FF80051208E30981056A
:101373001208E31981051208E35081051208E3F905
:1013830084051208E3C186051208E3A5880512083F
:10139300E34789051208E3D189051208E3D82E0033
:1013A3001208E3812F001208E36030001208E36C97
:1013B30031001208E38C31001208E3AE3200120848
:1013C300E35E34001208E3CB34001208E39C3500DB
:1013D3001208E3A236001208E31A37001208E35595
:1013E30037001208E3AE37001208E3E937001208AA
:1013F300E33238001208E3C638001208E35C390010
:101403001208E3313A001208E3043B001208E392A6
:101413003B001208E3B83B001208E3E53B00120867
:10142300E3163C001208E3E33C001208E3F33C003C
:101433001208E3463D001208E3533D001208E3603F
:101443003D001208E3693D001208E3CD3D00120898
:10145300E32B3E001208E3763E001208E3913E00C0
:101463001208E3B83E001208E3D53E001208E3E198
:101473003E001208E37240001208E38B400012089A
:10148300E30741001208E31A41001208E32A41006E
:101493001208E3CE41001208E33A43001208E34D79
:1014A30044001208E3ED44001208E3F74400120875
:1014B300E37645001208E38745001208E3C64500BA
:1014C3001208E3F445001208E3C146001208E318CA
:1014D30047001208E35147001208E3A74700120828
:1014E300E3C547001208E31348001208E3DE48008F
:1014F3001208E32C49001208E37949001208E3FCBF
:1015030049001208E3264A001208E35C4A00120865
:10151300E36B4A001208E3CA4A001208E3424B0095
:101523001208E3834B001208E3D34B001208E3FED7
:101533004B001208E3184C001208E3324C00120867
:10154300E3074D001208E3114D001208E34C4D0070
:101553001208E35C4D001208E3AD4D001208E3C12D
:101563004D001208E3E34E001208E3F84E001208A0
:10157300E38B4F001208E3FF4F001208E3A450006F
:101583001208E3AF50001208E31252001208E32ED0
:1015930052001208E37A52001208E3E852001208DC
:1015A300E31A53001208E33453001208E394530080
:1015B3001208E33354001208E37E54001208E3D107
:1015C30056001208E36957001208E3E057001208B7
:1015D300E33D5A001208E3555A001208E3585A0033
:1015E3001208E3645A001208E3785A001208E380F1
:1015F3005A001208E3B75A001208E3AB5B00120863
:10160300E3355C001208E3B75C001208E3375D00C2
:101613001208E30E5E001208E3305E001208E3C90D
:101623005E001208E3265F001208E3295F00120838
:10163300E3985F001208E3E460001208E3F7610037
:101643001208E38262001208E39563001208E35C68
:1016530064001208E38D64001208E3B36400120807
:10166300E3BC64001208E3EB64001208E39B65002B
:101673001208E34B66001208E3BE66001208E3613A
:1016830067001208E3D467001208E3136800120826
:10169300E35C68001208E3FFF4021208E36CF5024E
:1016A3001208E3B8F5021208E30AF6021208E38A05
:1016B300F6021208E387F8021208E39AFA02120804
:1016C300E3D3FD021208E302FE021208E320FE0246
:1016D3001208E38AFE021208E3B2FE021208E3E5EF
:1016E300FE021208E31AFF021208E37CFF0212084B
:1016F300E3C6EE041208E342EF041208E370EF04BA
:101703001208E3B5EF041208E316F1041208E332FA
:10171300F1041208E368F1041208E3E1F10412088A
:10172300E32FF2041208E3BFF2041208E397F30471
:101733001208E3E8F3041208E34DF4041208E3C0CB
:10174300F4041208E304F5041208E35CF504120838
:10175300E37EF5041208E30EF6041208E39FF60491
:101763001208E3D7F6041208E300F7041208E34172
:10177300F7041208E3E2F8041208E3C4F9041208B8
:10178300E3A0FA041208E379EE051208E38AEE05F2
:101793001208E328EF051208E3F57F001208E3EDD2
:1017A300FF011208E390F0051208E3A0F005120808
:1017B300E3B8F0051208E320F1051208E38BEB050B
:1017C3001208E30FEC051208E375EC051208E38C2D
:1017D300E3051208E3AEE3051208E314E405120877
:1017E300E333E4051208E37BE4051208E3D4E405DC
:1017F3001208E37FD2051208E38DD2051208E3062F
:10180300D3051208E3DBD3051208E3ADD5051208AF
:10181300E3C7FF021208E366A2051208E3D4A20598
:101823001208E38CA3051208E301A4051208E309D7
:10183300A5051208E395A6051208E3FEA6051208FE
:10184300E352A7051208E35BA7051208E36AA7059D
:101853001208E380A7051208E393A7051208E39C87
:10186300A7051208E3AFA7051208E3DBA7051208D3
:10187300E3B79B031208E3B1AA051208E3EDAA0537
:101883001208E301AB051208E31AAB051208E30BD8
:10189300AC051208E3BDAC051208E3D1AC05120890
:1018A300E313E5051208E337E5051208E350E50500
:1018B3001208E38EE5051208E3C4E5051208E3F711
:1018C300E5051208E363E6051208E366E605120878
:1018D300E370E6051208E37DE6051208E370A3034F
:1018E3001208E33FD6051208E38AD6051208E3A8D7
:1018F300D6051208E3C3D6051208E329D705120853
:10190300E335D7051208E392D7051208E3B6D705E6
:101913001208E37CD8051208E389D8051208E39A74
:10192300D8051208E32AF1051208E342F10512086B
:10193300E36EF1051208E356B7051208E3BAB805DA
:101943001208E3C8B8051208E3DCB8051208E3F986
:10195300B8051208E30EB9051208E321B905120808
:10196300E3A3B9051208E308BA051208E39EBA0512
:101973001208E377BB051208E387BB051208E39659
:10198300BB051208E3F7EF051208E31BF005120885
:10199300E343F0051208E36BF0051208E39EDD054F
:1019A3001208E3C5DD051208E3E3DD051208E35879
:1019B300DE051208E3D2FC011208E3EBFC01120876
:1019C300E302FD011208E30BFD011208E329FD0107
:1019D3001208E333FD011208E33DFD011208E35051
:1019E300FD011208E3D6FD011208E34BFE011208C4
:1019F300E379FE011208E3CAFE011208E316FF01B0
:101A03001208E331FF011208E33BFF011208E34C24
:101A1300FF011208E38FFF011208E3A2FF0112087E
:101A2300E3808A051208E3AC8A051208E3CF8A052E
:101A33001208E3E28A051208E3FD8A051208E3614E
:101A43008B051208E38F8B051208E39F8F0512089D
:101A5300E3F490051208E32691051208E39191053A
:101A63001208E3F892051208E32093051208E33500
:101A730093051208E34593051208E38593051208BD
:101A8300E3C793051208E3D793051208E3EAE705D2
:101A93001208E3FAE7051208E31EE8051208E34714
:101AA300E8051208E371E8051208E395E805120852
:101AB300E3ACE8051208E3DAE8051208E3FDE805FC
:101AC3001208E341F2051208E33FCB051208E34F86
:101AD300CB051208E36DCC051208E3A1CC0512086F
:101AE300E3C3CC051208E3EBCC051208E304CD05F0
:101AF3001208E340CD051208E3A2CD051208E3E77F
:101B0300CD051208E32CCE051208E359CE051208C1
:101B1300E391CE051208E335E9051208E353E9051D
:101B23001208E3B5E9051208E353EA051208E38E48
:101B3300ED051208E372EA051208E3BAEA05120892
:101B4300E33BFE031208E37BFF031208E379F3038D
:101B53001208E365F7031208E35AF9031208E38C4A
:101B6300FA031208E366FB031208E3FDFC03120801
:101B7300E3C9FD031208E31DFE031208E3C1E105F7
:101B83001208E3E2E1051208E315E3051208E33F57
:101B9300E3051208E3C8D8051208E33CD905120887
:101BA300E347D9051208E368D9051208E3ABEE0150
:101BB3001208E3AEEE011208E3DCF3011208E31AA4
:101BC300F5011208E395F6011208E37AF70112080A
:101BD300E34FF8011208E343F9011208E301FA01A4
:101BE3001208E331FA011208E3E4FB011208E38768
:101BF300E6051208E3A7E6051208E3BAE7051208AB
:101C0300E3BDE7051208E342EF051208E378EF05A9
:101C13001208E394EF051208E3D6EF051208E3E692
:101C2300EF051208E30794051208E341940512082F
:101C3300E3AA94051208E3C994051208E3E29405A4
:101C43001208E38495051208E38D95051208E3DE77
:101C530095051208E30796051208E3149605120882
:101C6300E38596051208E31397051208E3619705C8
:101C73001208E39797051208E3F897051208E32083
:101C830098051208E39798051208E3F398051208DC
:101C9300E33699051208E37399051208E38599055C
:101CA3001208E39799051208E3B699051208E3BFF2
:101CB30099051208E38D9A051208E3D99A051208CB
:101CC300E3179B051208E30DB2051208E353B305AE
:101CD3001208E37CB3051208E38DB3051208E3ACE5
:101CE300B5051208E3CCB5051208E359DB05120864
:101CF300E38FDB051208E3DEDB051208E337DD05BE
:101D03001208E398DA041208E3C9DB041208E305B6
:101D1300DC041208E3BFDD041208E3E9DD04120862
:101D2300E362E0041208E3A2E0041208E337E204EA
:101D33001208E3D6E2041208E32EE3041208E3B424
:101D4300E3041208E3ECE3041208E32EE4041208AC
:101D5300E39FE5041208E31FE7041208E360E904C4
:101D63001208E38EE9041208E3BAE9041208E3C394
:101D7300E9041208E319EA041208E3A9EA041208C1
:101D8300E3E7ED041208E369EE041208E385F205C4
:101D93001208E39BF2051208E3A07F001208E3C7D1
:101DA300BB051208E3DCBB051208E38FBC05120870
:101DB300E3CFBC051208E3E8BC051208E31BBD052D
:101DC3001208E368BD051208E39CBD051208E3DEB3
:101DD300BD051208E3D4BF051208E38EEC05120813
:101DE300E3EDEC051208E32BED051208E36CED05BA
:101DF3001208E30080041208E30C80041208E36E67
:101E030080041208E37880041208E30B81041208AB
:101E1300E34781041208E30282041208E3158204F3
:101E23001208E37C82041208E30C83041208E350D3
:101E330083041208E3D083041208E38185041208A3
:101E4300E35187041208E3B988041208E35B8904A9
:101E53001208E3F28D041208E3F18E041208E37E04
:101E63008F041208E3A38F041208E33D90041208C1
:101E7300E35B90041208E37890041208E3EC900407
:101E83001208E30891041208E33591041208E3B63B
:101E930092041208E3D792041208E3589304120839
:101EA300E3FE93041208E34594041208E3B5940493
:101EB3001208E34F95041208E3C795041208E332AE
:101EC30096041208E3D196041208E33E970412081D
:101ED300E37997041208E3DC97041208E3339904C7
:101EE3001208E3C699041208E37D9A041208E30179
:101EF3009C041208E39A9C041208E30C9D04120844
:101F0300E3099F041208E3B5A0041208E3E2A00466
:101F13001208E3C4A2041208E3B3A4041208E3B949
:101F2300A5041208E395C7051208E307C8051208BC
:101F3300E315C8051208E326C9051208E363D603AF
:101F43001208E303D7031208E384D7031208E382DA
:101F5300D8031208E301D9031208E346DA0312088F
:101F6300E3E6DA031208E395DC031208E3A1DD03D9
:101F73001208E3BEDD031208E3EEDE031208E30AF0
:101F8300E0031208E3B4E0031208E3F8E3031208E2
:101F9300E305E6031208E38DE6031208E3E7E6032D
:101FA3001208E33AE7031208E3AFE7031208E33743
:101FB300E8031208E36FE8031208E34EEF03120885
:101FC300E3A8F1031208E384F2031208E3FDF10529
:101FD3001208E3E5CE051208E347CF051208E357DD
:101FE300D0051208E386D1051208E39FD105120834
:101FF300E3DED1051208E31ED2051208E338D20549
:102003001208E33BD2051208E3BDD6021208E31817
:10201300D7021208E3A8D7021208E321D902120853
:10202300E301DA021208E3BEDA021208E3D5DA02A8
:102033001208E326DB021208E39ADB021208E3E646
:10204300DB021208E3F9DB021208E352DC02120896
:10205300E3C1DC021208E3D9DC021208E39ADF02CF
:102063001208E330E0021208E367E0021208E3B06B
:10207300E0021208E3B6E2021208E306E3021208E2
:10208300E3E0E3021208E319E4021208E338E4028E
:102093001208E383E4021208E3A3E4021208E35AFA
:1020A300E5021208E328E6021208E333E602120807
:1020B300E3A7E6021208E302E7021208E342E7029B
:1020C3001208E379E8021208E3F5EA021208E328AA
:1020D300EB021208E3D2EB021208E3F7EB02120859
:1020E300E37BEC021208E35AED021208E398ED02D7
:1020F3001208E3FCED021208E3B0EE021208E3B3A8
:10210300EE021208E3BDEE021208E3C7EE02120864
:10211300E3E3EE021208E355EF021208E38EEF0247
:102123001208E3AAEF021208E3D7EF021208E3FE54
:10213300EF021208E322F0021208E35DF002120834
:10214300E3D0F0021208E304F1021208E345F102BE
:102153001208E35FF1021208E386F1021208E3B505
:10216300F1021208E3D5F1021208E312F202120897
:10217300E349F2021208E34CF3021208E384F40287
:102183001208E3A3F4021208E3BAF4021208E3CC40
:10219300F4021208E3AFF1051208E3C7F1051208D0
:1021A300E3E5AC051208E323AD051208E3BCAD0576
:1021B3001208E3C7AE051208E30FB1051208E38C5A
:1021C300B1051208E3439B051208E3929B0512082D
:1021D300E3509D051208E30B9F051208E3499F0591
:1021E3001208E33EA0051208E349A1051208E36BB8
:1021F300A1051208E3B5A1051208E336A2051208EA
:10220300E39168001208E3B468001208E3B76900B9
:102213001208E3096A001208E36B6A001208E3BDBF
:102223006A001208E3056B001208E36E6B001208E4
:10223300E3F36B001208E36F6C001208E3B56C0064
:102243001208E3BA70001208E31E73001208E35782
:1022530073001208E31574001208E31874001208DF
:10226300E3FF74001208E33376001208E3F9770002
:102273001208E3157A001208E3067B001208E38DC7
:102283007B001208E3DB7C001208E3007E001208E7
:10229300E33F7E001208E3F37E001208E3E4C40484
:1022A3001208E384C5041208E3F1C5041208E30B22
:1022B300C6041208E39FC6041208E3E7C604120823
:1022C300E318C8041208E357C8041208E3CEC8048D
:1022D3001208E31FC9041208E37EC9041208E32CA1
:1022E300CA041208E3EFCC041208E30FCE04120869
:1022F300E385CE041208E367D0041208E309D1048E
:102303001208E3B3D1041208E314D2041208E383DE
:10231300D2041208E3EAD3041208E3D2D404120865
:10232300E334D6041208E342D7041208E3CFD704F8
:102333001208E338D8041208E35AD9041208E3B2A6
:10234300A9041208E31DAA041208E365AA041208EB
:10235300E3A9AA041208E304AB041208E361AB0483
:102363001208E39CAB041208E320AC041208E37ADE
:10237300AC041208E3E9AD041208E361AE041208E9
:10238300E379AF041208E3A1AF041208E3ADB0048C
:102393001208E3BEB0041208E3D6B0041208E3FF48
:1023A300B1041208E322B2041208E3FBB2041208D8
:1023B300E31FB3041208E336B3041208E357B3046C
:1023C3001208E379B3041208E353B4041208E3AD2B
:1023D300B4041208E327B6041208E37FB604120814
:1023E300E39EB6041208E3F0B7041208E36FB804DF
:1023F3001208E3A6B8041208E3E0B8041208E34C99
:10240300B9041208E30BBA041208E3E9BB04120887
:10241300E3E9BC041208E3F4BD041208E306BF04B5
:102423001208E32EC0041208E33CC0041208E3417F
:10243300C1041208E3E3C1041208E329C204120829
:10244300E33EC2041208E346C3041208E3E7C304ED
:102453001208E343C4041208E3BBC3051208E3767E
:10246300C5051208E335C6051208E38AC605120836
:10247300E310C7051208E3E1BF051208E3FFBF0538
:102483001208E343C0051208E369C0051208E3908C
:10249300C0051208E3A8C0051208E3C0C00512086E
:1024A300E3D8C0051208E37BC1051208E3BDC105EB
:1024B3001208E3DFC2051208E3E8C2051208E3F1DC
:1024C300C2051208E3FAC2051208E304C3051208A1
:1024D300E37AFB041208E36EFF041208E37CFF04B3
:1024E3001208E381FF041208E34EE0051208E3D269
:1024F300FF031208E3529B031208E3BB9A0312087B
:10250300E3499A031208E3389A031208E354990340
:102513001208E37098031208E38695031208E34355
:1025230094031208E3AA91031208E36591031208C6
:10253300E30B91031208E36C90031208E317900373
:102543001208E3448F031208E37E8E031208E3426A
:102553008E031208E3D58D031208E3CD8D03120811
:10256300E3428D031208E3D28C031208E3238C03A6
:102573001208E3188C031208E3098C031208E3E83A
:102583008B031208E334A3031208E3B48B0312088A
:10259300E3B0A2031208E382A1031208E372A103CA
:1025A3001208E350A0031208E36E9E031208E365CA
:1025B3009E031208E3589E031208E35B9D0312086F
:1025C300E3888B031208E35A8A031208E34E880355
:1025D3001208E31F88031208E3E89C031208E303CD
:1025E30088031208E3AD87031208E3748703120814
:1025F300E3EC86031208E3CC9C031208E3A08603F2
:102603001208E31CD6051208E35986031208E38C6B
:1026130085031208E31085031208E3688403120894
:10262300E3C183031208E36383031208E3388303DC
:102633001208E3E982031208E3AB82031208E38979
:1026430082031208E36682031208E34D8203120831
:10265300E30582031208E34F81031208E3C38003F7
:102663001208E3A79C031208E35780031208E30050
:1026730080031208E371AA0500000080FBE47300E5
:1026830000030020012E810000000020012F8100A3
:1026930000040042013A800000050042014B800023
:1026A30000060042015C8000000700200130810029
:1026B3000010004203031D000011002003EE1A0066
:1026C3000012001003141D030000002103EF1A067B
:1026D3000000001001F11A050B00002101000005A4
:1026E3000B010021010000050B000123010000057F
:1026F3000B010123010000050B020123010000056A
:102703000B030123010000050B0401210100000557
:102713000B050121010000050B0601210100000545
:102723000B070121010000050B0801210100000531
:102733000B090121010000050B0A0121010000051D
:102743000B0B0121010000050B0C01210100000509
:102753000B0D0121010000050B0E012101000005F5
:102763000B0F0121010000050B10012101000005E1
:102773000B110121010000050B12012101000005CD
:102783000B130121010000050B14012101000005B9
:102793000B150121010000050B16012101000005A5
:1027A3000B170121010000050B1801210100000591
:1027B3000B190121010000050B1A0121010000057D
:1027C3000B1B0121010000050B1C0120010000056A
:1027D3000B1D0128010000870001006E1D35000458
:1027E30000331D25000200371D26000200391D2776
:1027F3000002003B1D28000100451D290001004681
:102803001D84000400471D860001004B1D2A0001A2
:10281300004C1D2B0001004D1D2C000100511D2DEE
:102823000008006A1C2E000100521D2F00010053F6
:102833001D30000100541D31000100551D320001FF
:1028430000721C33000100731C34000100561D3656
:10285300000100741C38000100571D3900010050AD
:102863001D830002006C1D63000100801C640001D5
:10287300004E1D650001004F1D6D000100811C719C
:10288300000800621C660001006B1D430001005C30
:102893001D440002005D1D450001005F1D4600024E
:1028A30000601D47000800781C48000100621D4BB2
:1028B300000100631D040001006F1DA100010072EF
:1028C3001D37000100711D88000100701D3C0001CF
:1028D30000751C3D000100581D49000200641D677E
:1028E300000100821C4D000200661D4E00010068BD
:1028F3001D4F000200691D3E000100771C510001BD
:1029030000591D520001005A1D530001005B1D5464
:10291300000100761C0000000000000001363601B3
:102923000100010201000103010001040106060583
:10293300020000070100340801000F090401010D22
:102943000100FF0E08000017020000190100FF1A22
:102953000100011B0100FE1C0100081D0200001FF5
:1029630001000120010001210200002301000F24C6
:102973000200002601000127010008280200FF2AA7
:102983000100072B0102402C0100002D0100012E44
:102993000100012F0100FF30010B1D310800003A37
:1029A3000100083B01000F3C0100013D0100FF3E17
:1029B30004000042040000460400004A0400004EE4
:1029C30004000052040000560400005A04000000F2
:1029D3000021010001002102000001236600010122
:1029E3002367000201236800030123690004012116
:1029F3006A000501216B000601212C010701212D2D
:102A0300010801212E010901212F010A01213001B1
:102A13000B012131010C0121C8000D0121C9000E58
:102A23000121CA000F0121CB00100121CC001101AB
:102A330021CD00120121CE00130121320114012105
:102A43003301150121CF001601213401170121D0D3
:102A530000180121D100190121D2001A0121D3004C
:102A630001037103010301030103010301032203B2
:102A73000203010310030003000300030003000328
:102A830000030003420300032403060300030003BF
:102A9300040312032503230325032303040304036D
:102AA30000030003000344030003000323030003A4
:102AB30065032100350381030003050300030003BD
:102AC30000030003250323030300710030016000AA
:102AD30011007000310220035004800010006100D7
:102AE30000001400630073007200620043000000E2
:102AF30013000600000000000400120000000000A4
:102B03000000000004000400370037003C024400CA
:102B13000000000000000000650000003500810097
:102B230000000500000083000000010171010101A4
:102B330001011101010131010101010180011001B4
:102B430061013B00140063017301720162014301DF
:102B53000001130106013D013500040112010001CA
:102B630000010001000104010401330133013C01B0
:102B73004401320136000001000165010001350006
:102B83008101000105018201830100010302710239
:102B9300300160021102700201020202020280028D
:102BA300100261023A004100630273027202620280
:102BB3004302000213023800000200020402120260
:102BC3000002000200020002040204023700370080
:102BD3003C024402000239000002000265020002C6
:102BE300350281020002050282028302000203040D
:102BF3007104020460041104700402040204010459
:102C030002041004610400041404630473047204D2
:102C130062044304000413040604000400040404CF
:102C230012040004000400040004510464000004BE
:102C330000040004440400040004000400046504C8
:102C430000043504810464000504000483040004C3
:102C530036000100060000000F0000000000000025
:102C630000000000000003FFFF00000403FFFF005B
:102C730000FFFF0FF4010005C4040320000100005E
:102C83000B000000000000000003010F0000000023
:102C93000000000000000000000000000000000031
:102CA3000000000000000000000000000000D11E32
:102CB3000D1FD71E111EDD1E131FDD1E1F1FE31E5A
:102CC300111EDD1E131FE91E111EEF1E111EF51E20
:102CD300111EFB1E111E011F111E071F111E0000D6
:102CE30000000000000000000000000000000000E1
:102CF30000000000000000000000000000000000D1
:102D0300000000000000000000000A0000000200B4
:102D13000000040000000800000010000000200074
:102D230000004000000080000000000100000002DD
:102D33000000000400000008000000100000002054
:102D43000000004000000000DF22130067221F0084
:102D53006D221F8073220100DF2202001F22030065
:102D6300252204002B220500312206003D221100FA
:102D73005B221400612215004F22FFFF0000013780
:102D830010066110085B100B7910104F0D023D10F7
:102D9300054F100743100C1F100D2B10643725FF30
:102DA300000007ECFDFDFDECDCDCCCBCACAC9C9C7A
:102DB3008C7C7C6C6C5C5C5C4C4C3C3C2C2C1C1C00
:102DC30003EAF5E5D5D5C5B5A595958585757565ED
:102DD30065555545453535252515150500160F004F
:102DE300000B150B020002220F3300000E01030536
:102DF30007090B0D0F00020406080A0C0D5A696738
:102E0300426565416C6C69616E63653039303017BA
:102E1300181921301B1D1F3000034A49434E181A4D
:102E230025050200393D3F373C3C362C442D3030DC
:102E330016181920231A1C1E30000119161816160D
:102E4300182303000C0E020B040B0A0708000F02E1
:102E5300040201010101090200BE040AE8030000A3
:102E63007F000000E8030E000000030809000A0CBD
:102E730028FF1E1E0C0508090404001003010C059D
:102E8300082B150410E004123708A2E792AF22E4DE
:102E9300F0A3F0A3F022A3122E92A3F0227F0C0240
:102EA300063FE0F508E4F509F50AF50B227401F095
:102EB3009007C1E0640F22740912092E7F040206F1
:102EC3003FA3A3E024F5C39413229007E11259F81A
:102ED3007A147B0022C082C08390041174FDF0A396
:102EE3007413F0A3740FF0A37414F090041574E535
:102EF300F0A37413F0A374DFF0A37413F0A3741B93
:102F0300F0A37414F0A37421F0A37414F0A3741544
:102F1300F0A37414F0A374CDF0A37413F090042100
:102F230074F1F0A37413F0A374F7F0A37413F0A374
:102F330074EBF0A37413F0A37427F0A37414F0904C
:102F43000432124F8560061251EF121CFD90042FBC
:102F53001246B17408F0A3E4F0A3F09004D2F09009
:102F63000434F07C0BFDF97A357B04121C317C0BA5
:102F73007D0079007A407B04121C310246BA74F753
:102F83001203E374F71209ACEAFEEBFF1244D874A0
:102F93000512304E7403F0EE2402FAE43F12302897
:102FA300242DFCE43FFD8C828D8312316612303771
:102FB30060081238B074FFF0A3F0EE242BE43F1C3A
:102FC3001CFD8C828D83A3E0C0E08A828B83124434
:102FD300E9D0E012303788828983124CE12403124E
:102FE30057C2121DED7408120BEC7403F09007D650
:102FF30012074274021209A47903EEFAEFFB1215C9
:10300300B9740212092EE9F5087007EEFAEFFB1204
:10301300149FA90874090238C0F582E43FF58312AE
:10302300642D124CD6FB8A828B83123046E8F0A3C0
:10303300E9F0EE22125A16123046E8F0A3E9125FC5
:1030430092E0221231318A828B8322F0A3E4F012C0
:10305300305622EE240DF582E43FF5832274F112FB
:1030630003E3EAFEEBFF8C088D09890A12313B8AE0
:10307300828B83123131740F120BEC123154E8241A
:10308300FF18E934FFF988828983E50A12314690F3
:1030930007DB1231439007DA1231437411120BEC40
:1030A300123154EE2404FCE43FFD880B8A828B83A7
:1030B300E0F50C8C828D83E0250CC3950B125A121C
:1030C300E8F0A3E9124445A3A3A3A3A3A3A3A3E006
:1030D300640370081247A1F0A3E48003123447127B
:1030E30030517409F0750C35750D04750E00780CAC
:1030F3001208FC12343B121C25740312092E750CA2
:10310300FF750DFF780C120900AC08AD097903EEC9
:10311300FAEFFB1215B9740212092EE9F5087007CC
:10312300EEFAEFFB12149FA9087F0702063FE02483
:10313300FFF8A3E034FFF922EE2402FAE43FFB2276
:1031430012316612314A22F0E824FF18E934FFF9FC
:1031530022E0F50CA312316612314A88828983E595
:103163000CF022E08882898322C082C083900451BC
:10317300E0C39408400474078001E08A828B83F0E3
:1031830033333354F8F90246BA74F01203E3EAFE18
:10319300EBFF890C8C0E8D0F750A00A2AFE433F59B
:1031A3000BC2AF90044B803F1232745037123285FA
:1031B30064037030EE24F9FEEF34FFFF8508828547
:1031C3000983A3A3E02405FCA3E03400FDEEFAEF9A
:1031D300FB121DEDEE24FF1EEF34FFFF7410250AD2
:1031E300F50A150C124412126429E50C6006E50871
:1031F300450970B4E50BA2E092AFA2AFE433F50B3F
:10320300C2AF90044B802C2402FAE43509FB8A8276
:103213008B83125A012406F582E438F58312329225
:103223008A828B8312327AA3A3123292050A150C77
:103233001244121244276022123285640270F11282
:103243003274E50840C1123575A2E550E3850E825C
:10325300850F837401F0E50C70D6E50BA2E092AF05
:103263008E828F83E50AF0EE24FFFAEF34FFFB80B2
:1032730035123580A2E62212327E22125DF6A3A316
:10328300A322850882850983125DF012542A22E065
:103293008E828F83F0EE24FF1EEF34FFFF2212167F
:1032A30085740412092E7F0802063F74EC1203E3AF
:1032B30074F51209AC89138A128B0F85188285194C
:1032C30083E4F00412099C1213AFE9F89007C0E0FD
:1032D300292434F508FA7B00121C498A0A8B0BAEA9
:1032E3000AAF0BEE4F700302342FEE2402F50AE40B
:1032F3003FF50BA808EE28F8E43FF9850A82850B11
:10330300831230302404F510E43FF511851082F563
:1033130083E4F09007C0E0FCF8C3E498F895E0F983
:10332300850A82850B83E028F508A3E039F5099027
:1033330007BE1256BA750E00780C1208FC7D00AA5F
:1033430008AB09121C25740312092EAC18AD1974AD
:1033530001120BECE0F9E50824FFFAE50934FFFB61
:103363001213B58A828B83E4F0EA24FFF508EB3469
:10337300FFF509E50FC454F0F99004D3E0C43333E7
:1033830054C0F89007BAE0A2E0E433131348494469
:103393000F12344FE512C454F04513850882850992
:1033A30083F0A808850A82850B83E0FA851082855D
:1033B3001183E02AC398F0850A82850B83E8F0A382
:1033C300E509F0123447123051E4F0740A120BECA1
:1033D300E4F0750840750904F50A78081208FC1230
:1033E300343B121C25740312092E85188285198318
:1033F300E06009EE240E12456E4408F01215A1E9AF
:10340300F9E4F508F509780812090074041209A40F
:10341300EEFAEFFB1215B9740212092EE97006EEEB
:10342300FAEFFB800BEEFAEFFB121C4F7A007B00E6
:10343300740B12092E022EA07C0B7D00EE2418FAC9
:10344300E43FFB221244DCE4F0A322E085088285FA
:10345300098312345922F012568E2274F31203E3B5
:103463008A0A8B0BA2AFE433F50CC2AF7508007563
:10347300090090044B802C12369C5024850A8285C7
:103483000B83A3A31268568E828F83A3A31251F2D8
:103493001215A7E9600A1234C2C2E6F08E088F093A
:1034A30012369112394A70CFE50845096006123584
:1034B3007CD2E6F0E50CA2E092AF7F0502063F1254
:1034C30034C6221256A7E02274F01203E3EAFEEB9D
:1034D300FF8C0C8D0D750E00A2AFE433F50FC2AF58
:1034E30075080075090090044B8020850A08850B38
:1034F3000912357CD2E4F0E508123575D2E7F0E520
:103503000A24FBF582E50B34FFF583E0F50AA3E01B
:10351300F50BE50A450B6043E50A1242FD350BF551
:1035230083E0A2E750D9850A82850B83A3A3120700
:1035330042AC0CAD0DEEFAEFFB1215AD740212099D
:103543002EE960BBE508450960A1E508240D1235A5
:103553008864017006123591D2E4F0E50FA2E0927F
:10356300AFE50845096006121499750E01A90E020C
:1035730032A912432712358B2212358022E5082403
:103583001112358822F582E43509F583E022850896
:1035930082850983125DF0E02274F21203E374FE64
:1035A3001209AC750C00750D00851882851983E42A
:1035B300F0A3F0A2AF33F50AC2AF90044BE0FEA331
:1035C300E0FF8035EE24FBF582EF34FF12642778A9
:1035D3000C120900EEFCEFFD7A4B7B04121C7F7486
:1035E3000212092EEEFCEFFDAA18AB19121C6DAEE8
:1035F30008AF09900451E014F0EE4F602712369C97
:10360300501DEE240BF8E43FF988828983E024FF00
:10361300F0A3E034FFF088828983124F8560A512FE
:10362300368D8099E50AA2E092AF900451E06031B3
:103633009007C1E0640F60069004D2E070237A29FA
:103643007B0412169190810512073E7A297B04129E
:103653001685740412092E800874F01248D81214C7
:103663008DAA18AB19121C738A0A8B0BAE0AAF0B07
:10367300EE4F60131213C11234C2A2E28E828F8303
:10368300A350D674E980D40239528E0C8F0DEE24E8
:10369300FBF582EF34FFF583221234C6A2E72274CE
:1036A300F71203E3EAFEEBFF1213C11244E61226FC
:1036B30080E964019007DD700AE02401F8A3E03497
:1036C300008004E0F8A3E0F9124B34124EDD9004BD
:1036D30051E070219007C1E0640F70197A297B04CF
:1036E30012169190810512073E7A297B04121685E2
:1036F300740412092EA9A8C2AF900451E004123732
:1037030008A2E7800DF0E9A2E7E433F8E922E5082F
:10371300A2E092AF02497474F71203E3EAFEEBFFEF
:1037230012374FF01213C1EEFCEFFD7A4B7B0412FC
:103733001C79A9A8C2AF900451122E889007C1E04A
:10374300640F700579081215590249741234C6C200
:10375300E42274F71203E374EA1209ACEAFEEBFF06
:103763009007BAE060408518828519837401F012CE
:103773000BECE4123827120BECAA82AB83121DED7B
:103783008E828F83123597C0E0740A120BECD0E05F
:10379300125A27740B120BECAA82AB831215D1AA0F
:1037A30018AB191224D174160238C074F71203E34C
:1037B300EAFEEBFF1213A3E9F974DC69601E74DD02
:1037C30069601974E469601474F369600F74DE69E5
:1037D300600A74DF69600574DB697007EEFAEFFB5A
:1037E30012155F02497474F71203E374EB1209AC08
:1037F300EAFEEBFF851882851983740612382712B7
:103803000BECAA82AB83121DED125A2C740A120B15
:10381300ECAA82AB831215D1AA18AB191224D17466
:10382300150238C0F0EE2413FCE43FFD7402227449
:10383300F71203E374F71209ACEAFEEBFFEE242D53
:1038430012456E60651240FFAA18AB19121DED7484
:1038530008120BEC7403F09007D61207421238B02B
:103863001207429007E9E0F974041209A4EEFAEF93
:10387300FB1213A9740412092EE9F974DC6960239D
:1038830074DD69601E74E469601974F3696014740B
:10389300DE69600F74DF69600A74E869600574DBD0
:1038A300697007EEFAEFFB12155F023017EE12385C
:1038B300B522242BF582E43FF58322740312092EEB
:1038C30002497474F21203E38A088B09750C0075BC
:1038D3000D00750AE7A2AFE433F50BC2AF90044BBA
:1038E300800312368D12394A603512369C50F3121A
:1038F300456B640170ECEE242FF582E43F123AF934
:10390300E06870DE780C120900EEFCEFFD7A4B7B69
:1039130004121C7F740212092E900451E014F0E586
:103923000BA2E092AFEE4F6013EEFAEFFB1213C15E
:1039330079F0EEFAEFFB12155F750A00A90AAA08DF
:10394300AB0912155F800DE0FEA3E0FFEE4F22747A
:103953000212092E7F0602063F74F41203E374F782
:103963001209ACEAFEEBFF8E828F83A3E064F3704F
:1039730003023A068E828F83A3E064DF7003023A68
:10398300068E828F83A3E064E860788E828F83A3A0
:10399300E064DB606E121403E9F508705EEE240E3A
:1039A30012456E6056123A1012144BEA4B604C7477
:1039B30008120BEC123A1A1207427508FF7509FF39
:1039C30078081209008E828F83A3A3A3A3A3A3A3C2
:1039D300A3E0F974041209A41213A9740412092EA2
:1039E300E9F50874F36508601274DF6508600C7408
:1039F300E86508600674DB6508700F8E828F83A309
:103A0300E508F0EEFAEFFB12140F022EBAEE240FC4
:103A1300FAE43FFB79092274021261EF74FFF0A309
:103A2300123A2722123A2B22124CEAA3A32274F54C
:103A33001203E38A088B097E008A828B83A3A3A3E4
:103A4300A3A3A3122EC440027EE88A828B83A3A37E
:103A5300A3A3A3A3A3A3A3A3E0C3941040047EE85A
:103A630080138A828B83A3A3A3A3A3A3A3A3A3A348
:103A7300E0640F600A9004AFE0540870027EE8EA45
:103A8300240BF582E43509123AF9A3A3A3A3A3A354
:103A9300A3A3E0C398500CEA240B123588640F608B
:103AA300027EE89007DAE0F47003A3E0F470027E8C
:103AB300EC7A237B00121CF790043212520290041A
:103AC30032124F856029850882850983A3A3A982C1
:103AD300AA8389088A09750A0078081208FC7C23DE
:103AE3007D001251EF121C25740312092E80027EF1
:103AF3001AEEF9026390F583E0F88A828B83A3A31D
:103B03002274F51203E3EAFEEBFF8E828F83A3A3F5
:103B1300A3A3A3A3A3A3E09007C11260D29007DCE1
:103B23001260B89007BC1260D79004D3F0F9121951
:103B3300C79004D3E06018EE2404FAE43FFB795005
:103B43001219AFEE2406FAE43FFB79E11219AF90A4
:103B530004D2122EB0600474018002740090043405
:103B63001260BE1208FC7C0B7D007A357B04121CAC
:103B730025740312092EEE2418F508E43FF509789D
:103B8300081208FC7C0B7D007A407B040263887476
:103B9300F71203E3EAFEEBFF8E828F83A3E0700646
:103BA3001251EF1214098E828F83742C1248D8128B
:103BB300156B02497474F71203E3EAFEEBFF9004FA
:103BC30032124F85600D1251EF900432E4F0A3F0EE
:103BD300121CFD8E828F8374081248D81224D102DE
:103BE300497474F61203E39004D2E0601390043432
:103BF300E0700D123C061213BBEA4B600312149FD4
:103C0300025D329007BCE0FB9007DCE0FA9007C14D
:103C1300E0F92274F41203E374E71209ACEAFEEB51
:103C2300FF750B018E828F83A3A3A3A3A3A3A3E09A
:103C3300A2E25068EE242BF582E43F126854123C52
:103C4300D41213C7E970559080A4E0640170057520
:103C53000B008048123CDC1208FC7C0B7D007411C5
:103C630012099C121C25740312092E1215A1E9FADC
:103C7300740E1209948808890978081209007508D6
:103C83003075090078081209001238B01207421281
:103C930059C879011215BF740612092E8518828539
:103CA30019837410123827120BECAA82AB83121DEE
:103CB300E11238B01259F4740B120BEC124EDD748E
:103CC3000D120BECE50B12474B1224D17419022E83
:103CD300BCEE2413FAE43FFB22EE24081260C62252
:103CE300C082C0839004D3E060031216130246BA65
:103CF300C082C0839004CA7411F0A37404F0A37447
:103D030015F0A37404F0A37421F0A37404F0901CC1
:103D13009F74F1F0A3742BF09004B4749DF0A3741A
:103D230013F090045674D3F0A37413F090045874F2
:103D3300D9F0A37413F09004AFE044028001E4F0DF
:103D43000246BAC082C083EAFCEBFD7903024D56FA
:103D5300C082C083EAFCEBFD7905024D56C082C0E8
:103D6300837908025EC3C082C08374FE1209AC90DB
:103D7300045E7487F0A37414F09004607481F0A35C
:103D83007414F0800D7A4B7B04121C73124741129A
:103D9300158F90044B124F8570EB90044D124F8595
:103DA300600F7A4D7B04121C7312474112158F80EA
:103DB300E990044BE4F0A3F0900451122E937402A3
:103DC3008002741112092E0246BA74F61203E3E953
:103DD300FF742629F582E4342EF583E493FEFA7BFF
:103DE30000121C49EA4B6011EA2E124ED38A828BD1
:103DF30083A3A3A3A3E4F0802C7A027B00121C49C3
:103E0300EA4B601D74102FF582E4342EF583E4939E
:103E13008A828B83F0A3741AF09004AAE0F9121C2F
:103E2300557A007B00025D32E9FC740629F8EAA2A8
:103E3300E0501EE875F00A84E5F0F96014740A286E
:103E4300C399F8E9C394054004740A28F8740B284D
:103E5300F8ECC3941340047A1480027A06EA2879B2
:103E6300002409F85001097A0A7B00120293E8F949
:103E73000208E0C082C0839004AFE05402600A12DB
:103E830024D7E960047901800279000246BAC0822E
:103E9300C0839004AFE054026016900451E0700CAC
:103EA300124F82600BE0C812441F50047901800254
:103EB30079000246BAC082C0839080A1E0F89004E2
:103EC30053E0C3985005121C4980047A007B00021A
:103ED30046BAC082C08312158F79000246BA74F7BE
:103EE3001203E374FE1209AC851882851983EAF084
:103EF300A3EB124050A3A3A3A3A3E0600A14606042
:103F030024FE6069023FD19007C1E0640F6018127C
:103F13001565E970128518828519831251F2900490
:103F23005A1244E91226809007E9E0C0E08518821E
:103F3300851983124CB4D0E012405074141261EB13
:103F43001268567A4D7B04121C6DA8A8C2AF900468
:103F530053E004125208792012155974020238C032
:103F6300851882851983125DF8741580D0851882AF
:103F7300851983124033A3A3E06053851882851902
:103F830083E02402F8A3E03400F98882898312666F
:103F930029E0C0E0851882851983E0FCA3E0CC24E6
:103FA30006F582E43CF583D0E0125A348882898393
:103FB30012520285188285198312431B8518828544
:103FC3001983601312403860051240404043AA1819
:103FD300AB1912158F808412403860F212404050A2
:103FE3001C12442FFA85188285198312403AF874FB
:103FF30051124ECE342EF583E4936A6014851882F1
:10400300851983124038640870C412442F64087001
:10401300BD12442F14124058240AC0E0851882852B
:1040230019831244E9D0E012405804023F40E0F8FB
:10403300A3124D0122E0F8A3E012405F228518820B
:10404300851983125A05124060C3940A2212406AEA
:10405300F58388822212406A12405F22C82406F543
:1040630082E438F583E0221261EFE0F8A3E022C096
:1040730082C083900462124F856008125DF9122694
:1040830080800279000246BA74F71203E3EAFEEB7A
:10409300FF1230567401F0EE2430F582E43FF583CD
:1040A300125762123030243212456EC0E0EE2413F0
:1040B300F582E43FF583D0E0F0EE243312456EC081
:1040C300E0EE2414F582E43FF583D0E0F0EE242CF7
:1040D300F582E43FF5831207421240FFEE242E12CD
:1040E300456EF91215B9740212092EE9F508700725
:1040F300EEFAEFFB12149FA908024974EE2423FC85
:10410300E43FFD22C082C083121565E96004792073
:10411300800279010246BAC082C083EA1242FD12CC
:1041230041BED2E0023D42C082C0831241B8640165
:1041330070111241C3400C8A828B83A3E0F91215DC
:104143005F806FEA24101241BBA2E650128A828B71
:1041530083A3E0F990045C1244E912268080531291
:1041630041B86401700D1241C350088A828B837475
:104173003080368A828B83A3E0641B8A828B8370B0
:104183000474228024A3E0700D1241B8F874311234
:104193004ECE342E800B1241B8F87410124ECE342A
:1041A3002EF583E4938A828B83F09004AAE0F912BC
:1041B3001C550246BAEA240DF582E43BF583E0225E
:1041C300EA1243273BF583E0A2E32274F71203E3E9
:1041D300E9FE124F8270030242F4EE6011741B6E0B
:1041E3007013E0C81242F7640570030242BF125D08
:1041F300E8E40242C374E96E7062124313700B1257
:1042030024DDE9600512432D606279EE12193190C5
:104213000454124310900454603B124330900454EE
:10422300700B12431014F0121AE70242F412431BEC
:10423300C2E712443B1242F76403700C1259FE1298
:1042430042FD124065D2E2F079ED121931124303B7
:104253001226808075125DEB74E9806474E16E70E0
:104263003E1224DDE9605512432D70509007E3E0C0
:10427300C0E01259FE2412F582E438F583D0E0F051
:104283009007D2E0C0E0900454124031124031D084
:10429300E0F09007D2E004F07901121ACF80527453
:1042A3001C6E70189004541251F29004641244E985
:1042B300122680900454E4F0A3F08035125DE8EEFA
:1042C300F09004541251F212148D1259FE1259D067
:1042D300E0548060109007E9E0F91219EB9007E8C9
:1042E300E0F91219DF900454E4F0A3F079101215E9
:1042F30059024974240D124062222411F582E422EA
:104303009004541251F6900458125DF222E0F8A37F
:10431300E0C8241212406222E0F8A3E0C812432747
:10432300124065222410F582E422900454125A05A7
:104333001259D4E054042274F41203E3750A00758D
:104343000B00A2AFE433FFC2AF124F8260030243FC
:10435300F71244E6122680E94410F890044B8009D2
:1043630085080A85090B124412124427700302437D
:10437300F712357C586870E8780A120900AC08AD6A
:10438300097A4B7B04121C7F740212092E90045489
:10439300E508F0A3E50912443B12441F405D900475
:1043A30052E014F0EFA2E092AF900454E0240EF830
:1043B300A3E03400F9880889098882F5831251F251
:1043C300900454124435F9121451E990044FF01239
:1043D3004443E054809004546026125A012413127B
:1043E3004062F91219EB1259FE2414124062F912B9
:1043F30019DF8018EFA2E092AF801190045180A1E1
:1044030012431BA2E1B3E433F9121ACF022EBFE524
:104413000824FBF582E50934FFF5832224111240B9
:1044230062A2E72212642DE50845092285188285D8
:10443300198312327EA3E022F0900454125A05220B
:10444300A3E4F08508828509832274F71203E3EA63
:10445300FEEBFF121589EE241012456EA2E3400C09
:1044630012456B6401700590809F80039080A0E0EB
:10447300F9EEFCEFFD7A4B7B04121C85E96046EEF6
:10448300FAEFFB90045E1244E9122680EE240E122A
:10449300456E54047020A8A8C2AF900452E00412E1
:1044A30051E8FAE8A2E792AF1244D8A3E0540170AE
:1044B30021121499801CEEFAEFFB9004561244E982
:1044C300122680800D8E828F83A374F11248D81236
:1044D300148D0249741244DC22EE240EF582E43F6B
:1044E300F58322900460125DF222C082C08312140D
:1044F300990246BA74F71203E3EAFEEBFF790090E0
:1045030004AFE05402700CEE243012456E54046084
:104513000279E89004AFE05460700CEE2430124549
:104523006E5402600279E88E828F83A3A3A3A3E073
:10453300F89080A5E0C398500279E8EE242E124546
:104543006E700CEE242B12456E700479F5800BE926
:10455300700512147BE9F9E96007EEFAEFFB121517
:104563005F02497434FFF509EE240DF582E43FF54B
:1045730083E022C082C0838A828B83740DF012246D
:10458300D10246BAC082C0838A828B83E4F0A3F04F
:10459300EA24301241BB540490809F7012E0F890DB
:1045A3000452E0C398401279F112155F0246BAE053
:1045B300F8900451E0C39850EE9004AAE0F9121C5D
:1045C3005580E974F61203E3E9FE244CFAE434005F
:1045D300FB121C49EA4B6012EE8A828B83A3A3A3CE
:1045E300A3F0EA244C124ED380047A007B00025DD0
:1045F30032C082C08390046674E7F0A37414F0A3FE
:104603007417F0A37415F0A374EDF0A37414F0A35E
:1046130074F3F0A37414F0A37411F0A37415F0A34E
:104623007405F0A37415F0A374FFF0A37414F0A33E
:10463300741DF0A37415F0A37423F0A37415F0A3F1
:104643007429F0A37415F0A37435F0A37415F0A3C3
:1046530074F9F0A37414F0A374E1F0A37414F0A339
:1046630074DBF0A37414F0900482740BF0A374153C
:10467300F0A3742FF0A37415F0A37449F0A3741678
:10468300F0A3743BF0A37415F0A37441F0A3741565
:10469300F09004A6E4F09004A9F09004921246B1BD
:1046A3007402F090049B1246B17401023D427459A6
:1046B300F0A37415F0A322D083D0820208E074F52E
:1046C3001203E374F11209AC85188285198374020D
:1046D300F07401120BECE9F060047AFF7BFF7402C3
:1046E300120BEC12520275089E750904750A0078C4
:1046F300081208FC7C0B7D007407120BECAA82AB3A
:1047030083121C25740312092EAA18AB191224D183
:10471300740F02638D74F71203E374FD1209AC8501
:104723001882851983740AF07401120BECE9F07492
:1047330002120BECEA12474B1224D10238BE851841
:1047430082851983EAF0A3EBF0AA18AB192274F659
:104753001203E374F71209ACEAFEEBFF1247A1124E
:10476300304E74021248C9AA18AB19121DE1EE2487
:104773002E12301C24301257CF1209007402120972
:10478300A479831A1AEFFB1215B9740212092EE9E0
:10479300F5087007EEFAEFFB12149F025D2B12442B
:1047A300DC74012274F01203E3126276120B7D783B
:1047B30008790C1202F478081208F87A957B04023F
:1047C30032A174F41203E374C61209AC9007C1E07A
:1047D300640F6010851882851983742E12474B125B
:1047E300156B80277A8C7B04121691122ECD120240
:1047F3009B88088909E4F50AF50B78081208F87A0A
:104803008C7B04121685740412092E743A022EBC92
:1048130074F51203E3EAFEEBFF8E828F83A3E0F8C5
:1048230060030248B2EE242D12456E64026007E075
:104833006403600278E8EE2423F582E43FF58312F3
:104843002EC6400478E8806AE87064EE2423FAE414
:104853003FFB79E11219AFEE242EFAE43FFB7950C6
:104863001219AFEE242D12456E6402700E1259BE5A
:104873001259F49007D0124EDD80129007D074FEC7
:10488300F0A3041248C97AC77B07121DEDEE241862
:10489300123CDF1208FC7C0B7D007A9E7B04121C09
:1048A30025740312092EEEFAEFFB1214D5E9F8E88A
:1048B3006011E88E828F83A3125C2074171248D88C
:1048C30012156B026390F0EE2425FCE43FFD228E6B
:1048D300828F837429F0EEFAEFFB2274F61203E35E
:1048E30074F71209AC9004A9E0703B7401F0F9125B
:1048F3001A99AA18AB1912159B75089E75090478A5
:10490300081209007508017509007808120900905A
:1049130007D612074274061209A47A037905121501
:10492300BF740612092E025D2D74F71203E3EAFE2B
:10493300EBFF7901121A9F8E828F83E0642070044B
:10494300A374EBF09004A9E0A2E25003C2E2F0E00A
:10495300A2E15008124B761214CF800C8E828F8303
:10496300742A1248D812156B8007EEFAEFFB121661
:10497300077F0102063F74F41203E374FE1209ACCD
:10498300EAFEEBFF7901121A9F7A8C7B04121691CF
:104993007A957B04121691124CC08518828519836F
:1049A300124CF4E0F50B700FAA18AB1979531219D6
:1049B300AF12641D1219AF123CDC1208FC7C0B7D94
:1049C300007A9E7B04121C25740312092E8518821B
:1049D3008519831251F2A90B1214C99004A9E0A2FC
:1049E300E1500C7A008E828F83A3E0F91214CF90EA
:1049F30004A9E4F07402022EBC74F71203E3EAFE86
:104A0300EBFF8E828F83A374EBF09004A9E0A2E105
:104A130050077A0079EB1214CFEEFAEFFB1215056B
:104A230002497474F71203E3EAFEEBFF7901121AE9
:104A33009F7A8C7B041216917A957B0412169190BF
:104A430004A6E4F09004A9F07AFF7BFF8E828F83A3
:104A5300A3E0F91214C902497474F71203E3EAFEDE
:104A6300EBFF1214FF02496D74F71203E3EAFEEB46
:104A7300FF7901121A9F8E828F83A3A3A3A3E06001
:104A8300047400800274EB124ABD5003C2E2F0E0EA
:104A9300A2E15008124BBF1214CF8014A2E05010B1
:104AA3008E828F83742AF0A374EB1248D812156B8D
:104AB300EEFAEFFB1214B10249748E828F83A3F0D6
:104AC3009004A9E0A2E22274F61203E3EAFEEBFFEC
:104AD3009004A9E0D2E1F07901121A998E828F83B2
:104AE300A3E0703C1215A1E9FAEE240DF508E43FAA
:104AF300F50978081209007508017509007808128C
:104B03000900124B34120742EE2402FCE43FFD7904
:104B1300051215BF740612092EE98E828F83A3F046
:104B23008E828F83A3E060067A00F91214CF025DB0
:104B330032124B3822EE240BF582E43FF5832274C4
:104B4300F71203E3EAFEEBFF7901121A9F8E828FBD
:104B530083E064207004A374EBF09004A9E0A2E264
:104B63005003C2E2F0E0A2E15006124B761214CFDA
:104B7300024974C2E1F07A008E828F83A3E0F922A6
:104B830074F71203E3EAFEEBFF7901121A9F7A8CA2
:104B93007B041216918E828F83A3A3A3A3E06004E8
:104BA3007400800274EB124ABD5003C2E2F0E0A22B
:104BB300E15006124BBF1214CF024AB3C2E1123ABC
:104BC30027A3E0A2E4E433FA8E828F83A3E0F922E1
:104BD30074F71203E3EAFEEBFF7901121A9F8E8248
:104BE3008F83A374EB124AC25003C2E2F0E0A2E146
:104BF3005006124B761214CF02497474F71203E372
:104C0300EAFEEBFF7A8C7B04121691EEFAEFFB12AD
:104C1300152902496D74F71203E3EAFEEBFF7A8C60
:104C23007B04121691EEFAEFFB12152902497474F4
:104C3300F71203E374EF1209ACEAFEEBFF1259C853
:104C43007AC77B07121DDBE96062851882851983A9
:104C53007409F07401120BEC74EFF0124CC0F87489
:104C630002120BECE8124CF4A3A3E0C0E0740412AC
:104C73000BECD0E0124CE1640870158E828F83A395
:104C8300A3124CB4E0C0E07405120BECD0E0800634
:104C93007405120BECE4125A277406120BECAA8269
:104CA300AB831215D1AA18AB191224D1741102388F
:104CB300C0125A052407F582E438F58322124CD634
:104CC300FB8A828B831259F888828983E0FCA3E0F4
:104CD300F9EC22EE2402F8E43FF9E8FAE922124C57
:104CE300E522124CEAE022F08E828F83A3A3A3A3D2
:104CF30022F0A3E9125A16124CFE22E0F8A3125D29
:104D0300F9A3A322C082C0831216130246BAC0823B
:104D1300C0839004C67466F0A37404F0A37482F095
:104D2300A37404F0901C99742DF0A3742BF0A37456
:104D33008FF0A3742BF09004B274C3F0A37414F037
:104D43009004AFE04401023D42C082C083EAFCEB21
:104D5300FD79021215770246BA74F61203E374FE64
:104D63001209AC9004AB124F8560077AAB7B041237
:104D7300158F9004B1E4F0901AC3124F856026801A
:104D830007AA18AB1912158F9004AAE0F9121C6137
:104D93008A088B09A808A909851882851983124EE8
:104DA300DDE84970DC7402025D2F74F71203E3E956
:104DB300FA7B009004AAE0F9121C8B02497474F781
:104DC3001203E374F01209ACEAFCEBFDE9FE8C82FA
:104DD3008D83E0F87447124ECE342EF583E493C0EE
:104DE300E07401120BECD0E0F0640B700DEE8C82DA
:104DF3008D83A3F01215F5024EC1E07003024EC17C
:104E0300640C6003024EB2741A6E700B7404120BBE
:104E1300ECE4F0A3024EB17404120BECECF0A3ED3E
:104E2300F0EC242F124EC6C0E07403120BECD0E05A
:104E3300125F89120BA57406120BEC120B998C826C
:104E43008D831259EB740A120BEC124EDDEC240E17
:104E5300124EC654106009851882851983E48013A5
:104E6300EC2412124EC6F89007E3E0C3988518822B
:104E7300851983F0E0C0E0740C120BECD0E0F0EC89
:104E83002415124EC6C0E0740D120BECD0E0F0EC0A
:104E93002416124EC6C0E0740E120BECD0E0F0ECF8
:104EA3002417124EC6C0E0740F120BECD0E0F0745E
:104EB30002120BECEEF0740112099C1224D174104F
:104EC3000238C0F582E43DF583E02228F582E4222E
:104ED300F8E43BF98A828B83A3A3E8F0A3E9F022E9
:104EE300C082C0839004B1E064037004790180023E
:104EF30079000246BA74F71203E39004B1E0124F4B
:104F03006F1268548A828B83E0C2E7F025E0F8ECE5
:104F1300124ECE3DF583A3E493FE124F6FF5831239
:104F23004F856005EE9004B1F08A828B83E0124FC7
:104F33007BEC28F582ED39F583E493FCC4540F250B
:104F4300E0F874C0124ECE3404F583124F85700519
:104F53001215E38014EC540F25E0FCE82CF582E4F1
:104F630039F5831244E9122680024974124F7B7487
:104F73009728F582741C392225E0F8E433F922904E
:104F830004541259F8E8492274F11203E374FE122F
:104F930009AC890AEAFEEBFF125087FA7B00121C68
:104FA300498A088B09EA450960388A828B83E50AB6
:104FB300F0A3E4F08E0C8F0DF50E780C1208FCA80C
:104FC3000A125094EA2402FAE43509FB121C2574F0
:104FD3000312092EAA08AB099004AAE0F9121C5582
:104FE3008012851882851983E50AF0791AAA18AB0D
:104FF3001912155F740212092E02312C74F2120376
:10500300E374FE1209AC890B8A088B09125087F5E9
:105013000AFA7B00121C498A0C8B0DAE0CAF0DEE05
:105023004F604A8E828F83E50BF0A3E4F0A80AEE6B
:1050330028F8E43FF98E828F83124EDB8E828F83B2
:10504300A3A3A3A3E4F0F50A78081208FCA80B12A3
:10505300509412343F121C25740312092EEEFAEFFA
:10506300FB9004AAE0F9121C55790080148518827C
:10507300851983E50BF0791AAA18AB1912155F7914
:105083001A023952741B29F582E4342EF583E49312
:1050930022743C28F582E4342EF583E493FC7D00EE
:1050A30022C082C083E99004AA023D4274F612032F
:1050B300E374FE1209ACEAFEEBFFEE542070378076
:1050C30040A8A8C2AF900453E0141251E8F508E8D1
:1050D300A2E792AF8A828B831251DF9004AD125202
:1050E3000212156B851882851983E0641560077AAF
:1050F300AD7B0412158F7A4D7B04121C73EA4B703F
:10510300C0EF54807012801C9004AD12520212152D
:105113006B7AAD7B0412158F9004AAE0F9121C611F
:10512300EA4B70E4EE5410600E851882851983747F
:105133002D12474B12156BEEA2E0500E8518828597
:105143001983742412474B12156BEE5402600E85BB
:105153001882851983742512474B12156BEE54047C
:10516300600E851882851983742612474B12156BBE
:10517300EE5408600E851882851983742812474BF4
:1051830012156BEE544060107401120BEC1261EABD
:10519300742C12474B12156BEE548060107401127D
:1051A3000BEC1261EA742F12474B12156B9004AB90
:1051B300124F856020A8A8C2AF9004AB1251F290A1
:1051C30004ABE4F0A312520812520112156B7AAD2C
:1051D3007B0412158F7A007B00024DA8E0851882AC
:1051E300851983F022F0E8A2E7E433229004321217
:1051F30051F622E0FAA3E0FB22A3A3A3A3A3A3EA0D
:10520300F0A3EBF0221251E8FEE8A2E792AF22C02E
:1052130082C0839004AD1259F4EA687002EB69709E
:10522300079004ADE4F0A3F00246BA74F71203E367
:10523300EAFEEBFFEE4F7003121799A2AFE433F5CA
:1052430008C2AF8E828F83124F856028E824FBFA51
:10525300E934FFFB9004AD126856E86C7002E96D07
:1052630070079004ADE4F0A3F08E828F83E4F0A383
:10527300F0121CFD023711C082C0839004D474D78E
:10528300F0A37415F0A374E9F0A37415F0A374EFFD
:10529300F0A37415F0A374ABF0A37414F0A374F526
:1052A300F0A37415F0A374A5F0A37414F0A374B160
:1052B300F0A37414F09004E27425F0A37416F0A321
:1052C30074FBF0A37415F0A37401F0A37416F0A398
:1052D300740DF0A37416F0A37407F0A37416F09082
:1052E30004D3023D41C082C0839007D0E064FE70C6
:1052F30003A3E0F470097CC77D07121DE180158AC2
:10530300828B83A3A3A3A3A3A3A3A37402F0125426
:105313006A124EDD0246BAC082C0839007DAC3E048
:1053230094FEA3E094FF40047903800279020246CD
:10533300BAC082C0831254758C828D8312542A683A
:105343007039740268701C8A828B83125383E068FD
:1053530070298A828B83A3125383A3E068701C791C
:1053630001801A7403687013EC2405FC50010DEAE4
:105373002405FA50010B121DE7800279000246BA98
:10538300A3A3A3A3A3E0F88C828D83A3A3A3A3A3C6
:105393002274F61203E37E00740A120BECE012543B
:1053A3001EFF8A828B83A3A3A3A3A3A3A3A3E06F5C
:1053B300706474026F704E8A828B83C082C083884C
:1053C300828983A3A3A3A3A3E0F50888828983A387
:1053D300A3A3A3A3A3E0FBAA08D083D082E06A70AF
:1053E30003A3E06B703088828983A3A3A3E0FA88C8
:1053F300828983A3A3A3A3E0F9EA6C7002E96D7029
:10540300157E01801174036F700CE82405FCE439E8
:10541300FD121DE7E9FEEEF9025D32F8A3E0F9881B
:1054230082898312542A22A3E01313543F54032284
:10543300C082C0838A828B83A3A3A3A3A3A3A3A3B2
:10544300E06402701412546AE0687003A3E06970A8
:10545300047901800F7900800BEAFCEBFD7AC77BAE
:1054630007121DDB0246BA9007D01259F88A828BC5
:1054730083228A828B8312542AF82274EC1203E368
:10548300EAFEEBFF8C128D13750A008C828D83A3C9
:10549300A3A3A3A3A3A3A3E0F510E9A2E750087570
:1054A3000CFF750DFF80069007D61256BAE9C2E7C6
:1054B300F511EE240E12456E5420600712569B74AC
:1054C30008800412569BE41256C254046007125615
:1054D300A3748080051256A374101256C254106030
:1054E30006125673E4800B9007E3E0C0E012567394
:1054F300D0E01256C2A2E05003750A205408600699
:105503007410450AF50A8E828F83A3A3E024FFF566
:1055130008A3E0124567C39402E0400B640B6005E7
:10552300E01412344F7403450AF50A750B00900713
:10553300F6E0640170118E828F83A3A3A3A3E0C35B
:1055430094674003750B1085110E750F00740E7868
:105553000E120A79E50F450BF50B7414120BECE0F0
:10556300F50EA3E0F50F74026511700E9007DB12C0
:10557300344E9007DA1256B180137403651170121A
:1055830012567D7CEA7D07AA08FB121DED12568A8E
:105593008004E5116028E5106014E50E650C7004C5
:1055A300E50F650D70087440450AF50A80108508FB
:1055B30082850983E50D1256C8E50C123455851012
:1055C3000C750D00740A780C120A79E50D450BF57C
:1055D3000B740265107015851282851383A3123430
:1055E3004E8512828513831256B18013740365109E
:1055F300701212567DAC12AD13AA08FB121DED12E8
:10560300568A8004E5106010850882850983E50FBA
:105613001256C8E50E123455A808A909E824FFF567
:1056230008E912456770059007C680039007D2E02A
:10563300FA04F0EA88828983124445E50B1256C8BE
:10564300E50AF0EE2404F8E43FF912313BAC088A92
:10565300828B83E0F50A88828983E0250AC39C1242
:105663005A12ECF0A3E509125B8EE4F0F9022EA0C6
:10567300EE2412F582E43FF58322E50824F9F508C8
:10568300E50934FFF5092212568E22E50824FFF5B9
:1056930008E50934FFF50922EE1243273FF583227B
:1056A3001256A722EE2411F582E43FF58322E0850A
:1056B3000882850983F022E0F50CA3E0F50D22F0C2
:1056C3001244DCE022123459850882F5832274EEF9
:1056D3001203E3890A8A0B8C108D11750C1A741648
:1056E300120BEC126429AA08FB12144B8A0E8B0FBF
:1056F300AE0EAF0FEE4F60607414120BEC125762D4
:10570300E8F0A3E9123051E50AF085080C85090D8C
:10571300750E00780C1208FC12343B121C2574031E
:1057230012092E7412120BEC120742AC10AD11A920
:105733000BEEFAEFFB1215B9740212092EE9F50C00
:105743007016E50A24F960031470061234C2D2E518
:10575300F0EEFAEFFB12149FA90C7F0A02063F1228
:105763005E071244DD2274F61203E374F71209ACE8
:10577300EAFEEBFF7801EE242F12456E60027805F6
:105783001244D8E812304E74041257C2121DE1EECF
:10579300242C12301C242E1257CF1209007402122B
:1057A30009A479031A1AEFFB1215B9740212092E10
:1057B300E9F5087007EEFAEFFB12149F025D2BF078
:1057C300EE2423FCE43FFDAA18AB1922F582E43F43
:1057D300F583123166124CE504F078082274F21254
:1057E30003E38A088B09ECFEEDFF8A828B83740541
:1057F300F0EE243212456E8A828B83A3A3F0EA244F
:1058030003F50AE43509F50B850A82F5831256BAC6
:105813001259BE120BA5E50C1242FD350DF583128C
:105823000B991259C8AA0CAB0D121DE1850A82858A
:105833000B83125DFFFAA3E0FB88828983A3A3A3F2
:105843001251FCEE242F12456EC0E01259DDD0E058
:10585300125A1C2415F582E438F583E4125A1C12FB
:1058630059D0E4125A27850A82850B83E02416FA5D
:10587300A3E03400FB1215D18E828F83A3A3A3A3CD
:10588300A3A3A3E0C0E0850A82850B83125A0124F7
:105893000DF582E438F583D0E0125A0BFAA3E0FB4E
:1058A300850A82850B831259F4E8240BFCE439FD45
:1058B3008A828B83E08C828D83F0A3E4125A34E0D6
:1058C300F50B8C828D83A3E0450B125A12A3E0FCE7
:1058D300A30A0AAB83A2E7E433C0E0E8240FF5820E
:1058E300E439F583D0E0F074075C6004780180024A
:1058F300780075F00374075CA428F8EA28FAE43BFF
:10590300FBE5082405F8E43509F98A828B83123113
:1059130066125A348508828509831251FC8882896C
:1059230083E0F50A540725E0FCE50AC4540F540745
:10593300F50A750B007403780A120A79EC250AF844
:10594300EA28F8E43BF9850882850983A3A3A3A386
:10595300A3A3A3A3A3E8F0A3E9124CE1FA8E828FD9
:1059630083A3A3E02AFAA3E03400FBC3EA98EB99EC
:1059730040308E828F83A3A3E0F885088285098354
:10598300A3A3A3A3A3A3A3A3A3E0FA8E828F83A3BA
:10599300A3A3A3E0C39A28850882850983A3A3A3AD
:1059A3008010850882850983A3A3A3A3A3A3A312BD
:1059B3004443A3A3A3A3A3F0023957EE2425F582FE
:1059C300E43FF58322EE2413FCE43FFD221259D475
:1059D30022240EF582E438F583221259E122E824C9
:1059E30010F582E439F58322A3A3A3A3A3A3A3A35E
:1059F300A31259F822E0F8A3E0F922900454125AB2
:105A03000522E0F8A3E0C822125C20A3A3E022123F
:105A13005A1622F08A828B8322F0850A82850B83B1
:105A2300125A0522F0125A2C22EE2408FCE43FFD00
:105A330022125A16A3AA82AB832274F51203E38CB3
:105A4300088D09750A0078081208FC7C0B7D00029A
:105A530063880208E0C082C083791812155F02468A
:105A6300BAC082C0838A828B83E0C3940B50031233
:105A730015DD0246BAC082C083791980DE74F7123D
:105A830003E3EAFEEBFF9004AB124F856010900432
:105A9300AB1251F21215E97AAB7B0412158FEEFAB1
:105AA300EFFB1215899004ABEEF0A3EF8002F0A395
:105AB300F002497474F71203E374DE1209ACEAFED0
:105AC300EBFF8E828F83E024FD601124FE6015249A
:105AD300ED600924FA600D14600A803D7416120B00
:105AE300ECE480077416120BEC7401F01240FF749F
:105AF3000B120BECAA82AB83121DED7413120BEC89
:105B0300125B93120BEC124EDD740A120BEC125B58
:105B13009F120BEC124EDD80427416120BEC7402D2
:105B2300F01259C8740B120BECAA82AB83121DED51
