:020000040000FA
:06000000020E0C0203ECED
:03002B00020A8343
:030033000209734C
:03004300020AA905
:0300530002032184
:03006B0002094D3A
:10008300020380010105030101FF0F10FEFF362C5F
:10009300000000000A2B00000000FF000000FF002A
:1000A300010020FD000206FFFF70814B814E81514C
:1000B300815781AB80A180A6805D81638166814881
:1000C3008160815A8101D007000060EA0000C0D43A
:1000D300010020BF0200320000000A0000001400EB
:1000E30000002E2100000000000034210000000069
:1000F30000000000000001240000000000000000D8
:10010300000000000000000000000000102020207C
:100113002020202020202020202020202001011426
:1001230000FFFFFF000A00010001000A00080401AC
:10013300510000065A80016981090401020000028E
:100143001081016D810101010400651A000000E8BE
:10015300030000FFFFDD1AE803000064006400B839
:1001630001A0BB0D00A0BB0D00020200F8FF0705B4
:1001730002070401051E02051E020A0A01020808FD
:1001830003B80B02803E0102FEFFE8030A050001EB
:10019300FFFF010A1401E0D0FFFFFF009C1C0012C7
:1001A3000E1C604F120E2B6012E7548066F6120C81
:1001B300BD7011120ED1703B090909F4F618F61837
:1001C300F618F622120CD17015120EDA0808086020
:1001D300EAE6447FF618768018E4F618F622120E43
:1001E300DA6016120ED17012E4F608F608F608E685
:1001F3005480F609090918181822EAC0E0EBC0E098
:10020300ECC0E0EDC0E0E687F0A4FBACF008E687C5
:10021300F0A42CFCE435F0FA1809E687F0A42C4B83
:1002230060027401CA35F0FCE433FB09E687F0D2BF
:10023300F7A42CCB35F0FC1908E687F0A42BCC35BA
:10024300F0FBE433FD0819E687F0D2E7A42C4ACB90
:1002530035F0CD3400FC09E687F0D2E7A42DCC3588
:10026300F0FDE433FA0918E687F0D2F7A42CCD3574
:10027300F0CA3400FC08E687F0D2E7D2F7A42ACC10
:1002830035F07A7E20E70B0ACB33CBCD33CDCC339D
:10029300CC33CB3350147004ED30E00ED2F1E4CD07
:1002A3003DCDCC3CCC3B5005DA05C2F1EB547FC6C7
:1002B3003308E63392F0FBE73309E733C39A502D53
:1002C3002B70190C0D4C4D70151806E608C33370CE
:1002D3000D20F10AA2F013F6E418800B4024E4F693
:1002E30030F002768018F618F618F68024D33B1403
:1002F300501074FFA2F013F6187680E418F618F67F
:10030300800FA2F013F618E63303F618ECF618ED97
:10031300F6D0E0FDD0E0FCD0E0FBD0E0FA22C0E074
:1003230074F1120715A2AFE433F509D2AF85A7081C
:10033300AFA1EF5508FE74105E6006121BAC75A1E9
:10034300EF74085E6008121BB275A1F78024EFA258
:10035300E092F0E508A2E082F05017906198E0F88F
:100363009006ABE0C398A2D265D0335002E8F07593
:10037300A1FEE509A2E092AF7F02020774C0E07418
:10038300F2120715A2AFE433FED2AF9061A4E0F8F6
:10039300759B00E59158540860087591F7121BFA94
:1003A3008023E59158541060087591EF121C00806A
:1003B30014E591A2E092F0E8A2E082F05007E0C2D7
:1003C300E0F0121D569061A3E0F8E5E9585404608B
:1003D3000E121D2C75E9FB906193E0A2E640F2EE4C
:1003E300A2E092AF7F01020774C0E074F212071516
:1003F300A2AFE433FED2AF9061A5E0F8E5BF585455
:1004030004600675BFFB121D6E80D4C3E498F8E444
:1004130099F912044F8026C3E49AFAE49BFBE9207E
:10042300E7E912044FE498F8E499F922C3E498F851
:10043300E499F912044FE498F8E499F9C3E49AFAB9
:10044300E49BFB22EB20E7CFE920E7E0B90010BBF8
:100453000008E88AF084F8AAF022E4FBC8FA22EB49
:1004630070227B10C833C8C933C9335007C39AC33A
:10047300DBF280069A50012ADBEAC833F4C8C93399
:10048300F4C9FA2275F008E4C833C8C933C933C9BB
:100493009AC99B5004C92AC93BD5F0ECFBC833F475
:1004A300C8E4C9FA221204F330F039120538803453
:1004B3001204F320F01430E72B74FFFCFBFA747F73
:1004C3008022E4FCFBFA7480801AB48008BC00F23A
:1004D300BB00EF800F50EBF9E4C39AFAE49BFBE413
:1004E3009CFCE499C6CC18C6CB18C6CA18C6F92218
:1004F300E4C9C608CAC608CBC6D3330308CCC6337F
:1005030092F0C3947F402E94184019C9B90704CAC6
:10051300CBCC225025C309CA33CACB33CBCC33CC83
:1005230033D9F422F4600DC9CCC313CB13CBCA1354
:10053300CAD9F6CC22E4FCFBFA2214FCFBFA22080B
:100543000808EAC0E0EBC0E086F0E7A4FA180986E1
:10055300F0E7A42AFA180986F0E7A42AFA1809860C
:10056300F0E7A42AFA1986F0E7A4FBE5F02AFA19C2
:100573000886F0E7A42BFBE5F03AFA190886F0E7C2
:10058300A42BFBE5F03AFA18180986F0E7A4C5F0A6
:100593002BFBE43AFA1908E7C5F0C6A426F6E5F002
:1005A3003BFBE43AFA1886F0E7A4F6E5F00826F6F2
:1005B300E43B08F6E43A08F6D0E0FBD0E0FA220880
:1005C3000808E630E711120CE51205DA080808C638
:1005D3004480C618181822181818E9799EC608CA44
:1005E300C608CBC608CCC6C370207996CACBCC70DC
:1005F30019798ECBCC70137986CC700EF9802ACA08
:1006030033CACB33CBCC33CC331930E7F2CCCBCAA0
:100613003350147004EA30E00DE4CA3ACACB3BCB42
:10062300CC3CCC500209C3E913C6CC182313C6CB68
:1006330018C6CA18C6F922E4CFC0E0E4CEC0E0E48D
:10064300CDC0E0E4CCC0E075F020E626F608E63342
:10065300F608E633F608E633F6181818EC33FCED23
:1006630033FDEE33FEEF33FFC3EC9709ED9709EE4D
:100673009709EF97191919400FFFEC97FC09ED97AC
:10068300FD09EE97FE191906D5F0BFECF709EDF752
:1006930009EEF709EFF7191919D0E0FCD0E0FDD006
:1006A300E0FED0E0FF222518C582C0E0E51934FF43
:1006B300C583C0E0E518C3958224F810AF0885838D
:1006C300198582188008858319858218D2AFCEF0E8
:1006D300A3E520F0A37808E608F0A3DEFAEFF0A381
:1006E300E58124FAF8E608F0A3E608F0A3E608F0AB
:1006F300A30808E608F0A3E608F0A315811581D046
:10070300E0FED0E0F8158115811581E8C0E0EEC068
:10071300E022C0D02518C582C0E0E51934FFC583A7
:10072300C0E0E518C3958224F310AF0885831985CB
:1007330082188008858319858218D2AFC8F0A3E98F
:10074300F0A3EAF0A3EBF0A37908E709F0A3D8FA42
:10075300ECF0A3EDF0A3EEF0A3EFF0A3D0E0F0A351
:10076300D0E0F0A3D0E0F0A3E520F0A3E5F0F0A300
:1007730022851983851882E0C0E0A3E0F9A3E0FA9B
:10078300A3E0FBA37808E0F608A3DFFAE0FCA3E00C
:10079300FDA3E0FEA3E0FFA3E0C0E0A3E0C0E0A36D
:1007A300E0F5D0A3E0F520A3E0A3F5F010AF0885B2
:1007B30083198582188008858319858218D2AFD062
:1007C30082D083D0E0F8D0E032120EBCB90003022D
:1007D300080BE4900301788479198002F0A3D8FC14
:1007E300D9FA7A847B1B900086781C79028015E401
:1007F30093A3AD82AE838A828B83F0A3AA82AB8359
:100803008D828E83D8E9D9E77582F87583A3740541
:10081300120B6C7582BE7583277400120B6CE47324
:100823000A75F0108E1A8F1B85821F85831E85180B
:1008330082851983E0CEA3E0CF851F82851E83EBDB
:10084300C9EAC8EDCBECCAC3E833C8E933C9EA3314
:10085300CAEB33CBC3EA9EF51DEB9FF51CB35004E3
:10086300AB1CAA1DEC33CCED33CDD5F0DAAE1AAF09
:100873001B22D083D082ECC0E0EDC0E0E493A3FC64
:10088300E493A3FDED4C600D120991EC24FFFCED04
:1008930034FFFD80EFE493A3FCE493A3FDED4C60F0
:1008A3000D120A2EEC24FFFCED34FFFD80EFD0E0A7
:1008B300FDD0E0FCE493A3C0E0E493C0E0228519FB
:1008C30083851882E0A3FEE0A3F5207808E0A3F671
:1008D30008DFFAE0A3FFE0A3C0E0E0A3C0E0E0A3E9
:1008E300C0E0E0A3C0E0E0A3C0E010AF0885821839
:1008F3008583198008858218858319D2AFD083D068
:1009030082020B72D083D082E9C0E0E493A3C38652
:10091300F0C5F095F0F908E493A386F0C5F095F0DF
:10092300700BE493A3C3994005E9048002A3E47523
:10093300F002A42582F582E5F03583F583D0E0F952
:10094300E493A3C0E0E493C0E022C0E074F2120792
:1009530015A2AFE433FED2AFE589A2E15003121A28
:100963009E758900C2C5EEA2E092AF7F01020774B3
:10097300C0E074F2120715A2AFE433FED2AFE58BE9
:10098300A2E05003121A9E758B00C2E880D8C0E023
:10099300C3E49396087401939618400FE49366702A
:1009A3000808740193661870007019A3A3C3E49335
:1009B30096087401939618A3A3400DD0E0D0E0D01D
:1009C300E00208B1A3A3A3A3A3A3D0E022740480ED
:1009D3000474028000CCC0E0EDC0E0E518C39CCCF9
:1009E300AD1950011D10AF068C188D1980068C1897
:1009F3008D19D2AF120AEED0E0FDD0E0FC227402D2
:100A03008000CCC0E0EDC0E0E518C39CCCAD19502C
:100A1300011D10AF068C188D1980068C188D19D204
:100A2300AF120ACCD0E0FDD0E0FC22C0E0C0F088D9
:100A3300F0E4936670080874019366187000A8F0D8
:100A4300A3A3700BD0F0D0E0D0E0D0E00208B1A3B4
:100A5300A3D0F0D0E022D083D082CCC0E0E493A333
:100A63006006120B2E1470FAE493A36006120C5462
:100A73001470FAD0E0FCE493A3C0E0E493C0E02256
:100A8300C0E0C0D0E8C0E0E9C0E0A9A8D2AFC2C7C7
:100A9300E9A2E7E433F8E9A2E792AFD0E0F9D0E0C6
:100AA300F8D0D0D0E032C0E074F2120715A2AFE460
:100AB30033FED2AFC2C0E5D1A2E45003121B1CEE39
:100AC300A2E092AF7F01020774CAC0E0E493A3C51A
:100AD30082CCC582C583CDC583F0A3C582CCC58234
:100AE300C583CDC583DAE5D0E0CA22CAC0E0E0A35E
:100AF300C582CCC582C583CDC583F0A3C582CCC5D1
:100B030082C583CDC583DAE6D0E0CA22700908081E
:100B130008226016181818C6C333C608C633C60899
:100B2300C633C608C633C6D5E0EA22C0E0E493A3C1
:100B3300D39C5010E493A3C39C400AD0E0D0E0D0F0
:100B4300E0020A76A3A3A3D0E022C008C3E096F58F
:100B53000808A3E096420808A3E096420808A3E029
:100B63009645087001D3D00822C09FF59FE473D047
:100B73009F22D083D082C09FE493C0E0740193C0CE
:100B8300E0740293F59F227404800A740380067450
:100B93000280027401C0E0F404120BC0D0E0120E14
:100BA300672200C0D0251810AF08F518500C05199E
:100BB3008008F51850020519D2AFD0D0222518F5B8
:100BC3008210AF08F518400C15198008F51840027B
:100BD3001519D2AF85198322BB0102E722C082C057
:100BE3008389828A83BB0003E08002E493D083D0AD
:100BF30082226016080808C6C313C618C613C6188F
:100C0300C613C618C613C6D5E0EA222518F8E4357C
:100C130019F9222518FAE43519FB222518FCE435C5
:100C230019FD22C3E0C696F608A3E0C696F608A30C
:100C3300E0C696F608A3E0C696F622251810AF087C
:100C4300F518400C15198008F51840021519D2AF94
:100C530022C0E0E493A36C7009D0E0D0E0D0E002BE
:100C63000A76A3A3D0E022E066701008A3E06670C2
:100C73000A08A3E066700408A3E06622E766701022
:100C83000809E766700A0809E76670040809E76659
:100C930022C3E09608A3E09608A3E09608A3E09693
:100CA300A2D265D03322C3E096F008A3E096F00801
:100CB300A3E096F008A3E096F022181818E6084679
:100CC300087009E626087005E633F422082219198C
:100CD30019E70947097009E727097005E733F42283
:100CE3000922181818E4C396F608E496F608E49661
:100CF300F608E496F622C3E49396087401939608E3
:100D030074029396087403939622C3E697F6080930
:100D1300E697F60809E697F60809E697F6227004BF
:100D230022600D18C6C333C608C633C6D5E0F4180F
:100D330022E026F608A3E036F608A3E036F608A379
:100D4300E036F622E657F60809E657F60809E657AD
:100D5300F60809E657F622E056F608A3E056F60829
:100D6300A3E056F608A3E056F622E056F008A3E007
:100D730056F008A3E056F008A3E056F022E627F663
:100D83000809E637F60809E637F60809E637F622D2
:100D9300E026F008A3E036F008A3E036F008A3E06D
:100DA30036F022E647F60809E647F60809E647F66D
:100DB3000809E647F622E493F608740193F60874EB
:100DC3000293F608740393F622600D08C6A2E71394
:100DD300C618C613C6D5E0F322C6F4C608C6F4C6C1
:100DE30008C6F4C608C6F4C622C3E7960809E79600
:100DF3000809E7960809E79622C3E09608A3E09658
:100E030008A3E09608A3E0962275D00075813F758C
:100E13001801751903000207CCE6084608C31346F8
:100E230008336002E633F422E7094709C31347098D
:100E3300336002E733F422600C08C6C313C618C636
:100E430013C6D5E0F422E6F008A3E6F008A3E6F023
:100E530008A3E6F022E0F608A3E0F608A3E0F6080C
:100E6300A3E0F622CAC0E0E6F0A308DAFAD0E0FA7B
:100E730022E0FCA3E0FDA3E0FEA3E0FF22EAF0A34F
:100E8300EBF0A3ECF0A3EDF022E0FAA3E0FBA3E088
:100E9300FCA3E0FD22E8F0A3E9F0A3EAF0A3EBF062
:100EA30022ECF0A3EDF0A3EEF0A3EFF022E0F8A321
:100EB300E0F9A3E0FAA3E0FB22E5C754F84401F507
:100EC300C77901222518F582E43519F58322E7272E
:100ED30019471947194722E6261846184618462285
:100EE300C2AF75D69F02000022120B757AA90212B7
:100EF3000B75E7A902120B75F2A902120B751AAA58
:100F030002120B7525AA02120B758AAA02120B751F
:100F130095AA02120B75B9AA02120B75DDAA021269
:100F23000B754FAB02120B7598AB02120B75B4AB7A
:100F330002120B7525AC02120B7571AC02120B7504
:100F4300BAAC02120B75F8AC02120B7579AD021232
:100F53000B7520AE02120B75EFAF02120B7554B076
:100F630002120B7582B102120B75A8B102120B7536
:100F7300F0B202120B752AB602120B7528B80212D0
:100F83000B75F3B902120B758CBA02120B758DBC7B
:100F930002120B7542BD02120B757BBD02120B755B
:100FA300E1BD02120B75EBBD02120B7514C00212E8
:100FB3000B7553C102120B75AAC102120B7555C2F0
:100FC30002120B7505C402120B7552C502120B7582
:100FD30072C502120B75C7C502120B75C8C6021281
:100FE3000B75F0C602120B754FC702120B7547C87B
:100FF30002120B75BEC802120B75D1C902120B7512
:101003003FCA02120B753ECB02120B7598CD02122A
:101013000B75C1CD02120B7527CF02120B75A9D028
:1010230002120B7500D102120B75AED102120B75B1
:1010330053D202120B75ACD202120B756AD3021291
:101043000B75FCD302120B755BD402120B759DD486
:1010530002120B75CED402120B7525D602120B7534
:10106300008003120B75328003120B756B80031221
:101073000B75298203120B75FF8203120B755E83B6
:1010830003120B75748403120B75C08403120B7562
:101093004E8703120B75288A03120B756F8B03128D
:1010A3000B75078C03120B75138C03120B755C8C79
:1010B30003120B759E8D03120B75948E03120B7521
:1010C300BE8E03120B75148F03120B756D8F0312F3
:1010D3000B75E08F03120B75169203120B75989321
:1010E30003120B75839403120B75CD9503120B75C5
:1010F300059803120B75029B03120B75119B0312C8
:101103000B75A59B03120B75509C03120B75939CD7
:1011130003120B75FB9C03120B75179D03120B75C2
:10112300469D03120B75859D03120B75809E03125A
:101133000B752F9F03120B75ACA103120B75DEA267
:1011430003120B75B6A303120B7538A403120B75A8
:101153006DA803120B759CA803120B75F7A8031255
:101163000B752AA903120B75A2A903120B75D5A936
:1011730003120B7536AA03120B7586AA03120B759D
:1011830053AB03120B750CAC03120B75D0AC0312EB
:101193000B754AAF03120B75ACB003120B75FDB19F
:1011A30003120B7521B303120B7524B303120B75D2
:1011B30053B303120B754BB503120B750AB6031227
:1011C3000B7539B603120B7557B703120B751FB89E
:1011D30003120B75DDB903120B750FBA03120B75EE
:1011E30051BA03120B7550BB03120B75C3BB031229
:1011F3000B75ECBD03120B754BBE03120B759FBE33
:1012030003120B75CEC003120B75B1C103120B751C
:101213006DC203120B7581C203120B7595C20312C3
:101223000B75C2C203120B75F2C203120B75ADC468
:1012330003120B75BFC503120B7514C603120B758E
:101243005DC603120B7584C603120B754CC70312DC
:101253000B75F2C703120B7578C903120B75BFC95F
:1012630003120B7531CA03120B7586CB03120B7570
:101273002FCC03120B7563CC03120B757BCC0312BB
:101283000B751ECD03120B759ACF03120B7542D14A
:1012930003120B7560D103120B757ED103120B750C
:1012A3004AD203120B7598D503120B757481011280
:1012B3000B75AC8101120B75AC8601120B75F286AE
:1012C30001120B75288801120B758D8801120B759D
:1012D300028A01120B750C8D01120B75358E0112EA
:1012E3000B75489801120B75D89801120B75C29BA8
:1012F30001120B75CF9C01120B75329D01120B75F8
:101303007A9E01120B75E8A001120B757AA20112E5
:101313000B7507A301120B7526A401120B75B3A459
:1013230001120B75BDA401120B75E5A401120B7517
:1013330085A501120B7570A601120B753DA701124D
:101343000B755AA701120B7583A701120B75B0A772
:1013530001120B75F7A901120B75C6AA01120B75C1
:1013630005AB01120B7587AB01120B7528AC01128B
:101373000B755AAC01120B75A1AC01120B75D4ACF1
:1013830001120B7518AD01120B7567AD01120B75C8
:101393006CAD01120B75C8AD01120B750CAE0112C9
:1013A3000B75E6AE01120B754BAF01120B75B1AFA6
:1013B30001120B752CB001120B7594B301120B754E
:1013C30097B401120B7515B601120B752BB90112E7
:1013D3000B75CDB901120B7516BC01120B75D1BC7F
:1013E30001120B7510BD01120B75E8BE01120B75CE
:1013F30005BF01120B750EBF01120B7517BF01124A
:101403000B7522BF01120B7541BF01120B75E5C0AD
:1014130001120B7542C101120B754CC101120B7500
:1014230056C101120B75B5C101120B75FFC1011233
:101433000B7500C301120B7557C301120B7568C4FA
:1014430001120B75B1C401120B756BC501120B753B
:1014530082C601120B7557C701120B759EC8011284
:101463000B75A2C901120B759BCA01120B75B3CA86
:1014730001120B75EACA01120B75F4CA01120B753E
:10148300FFCA01120B751DCB01120B7565CB01123F
:101493000B75C3CB01120B75EACB01120B75FCCB99
:1014A30001120B75B1CC01120B75EACC01120B754D
:1014B3000CCE01120B755FCE01120B7545CF0112D5
:1014C3000B756CCF01120B75DCCF01120B7558D065
:1014D30001120B75B4D101120B75DBD201120B751E
:1014E3009DD301120B756BD401120B7529D5011213
:1014F3000B7511D601120B75BBD601120B7523D7D1
:1015030001120B75D8D701120B7534D801120B7564
:101513008CD801120B7552D901120B7575D90112B2
:101523000B7530DA01120B7552DA01120B75B3DA4F
:1015330001120B75E3DC01120B75DCDD01120B7577
:1015430088DE01120B75A9E001120B75F2E001129E
:101553000B753DE101120B7599E101120B75F7E172
:1015630001120B751BE201120B753FE201120B75A1
:1015730074E201120B759CE201120B75E1E2011298
:101583000B7535E301120B758EE301120B7588E4BD
:1015930001120B7526E601120B756BE601120B7532
:1015A30094E601120B751DE701120B7590E701120A
:1015B3000B759EE701120B75C2E701120B7518E854
:1015C30001120B7533E801120B75EEE801120B756E
:1015D3001AE901120B755DE901120B75C0E90112DD
:1015E3000B75CEEB01120B75FAEB01120B75B5EC13
:1015F30001120B7599ED01120B752DEE01120B758E
:1016030060CA04120B7598CA04120B75B9CA041286
:101613000B75FBCA04120B755FCB04120B7569CBF8
:1016230004120B7579CB04120B75B0CB04120B7536
:1016330059CF04120B7521D104120B7505D3041273
:101643000B75A7D304120B7531D404120B75C22F7B
:1016530000120B756B3000120B754A3100120B75BB
:10166300563200120B75763200120B759833001246
:101673000B75483500120B75B53500120B758636A0
:1016830000120B758C3700120B75043800120B75A2
:101693003F3800120B75983800120B75D3380012BF
:1016A3000B751C3900120B75B03900120B75463AD5
:1016B30000120B751B3B00120B75EE3B00120B75F2
:1016C3007C3C00120B75A23C00120B75CF3C001240
:1016D3000B75003D00120B75CD3D00120B75DD3D02
:1016E30000120B75303E00120B753D3E00120B7558
:1016F3004A3E00120B75533E00120B75B73E0012A3
:101703000B75153F00120B75603F00120B757B3F85
:1017130000120B75A23F00120B75BF3F00120B7531
:10172300CB3F00120B755C4100120B757541001223
:101733000B75F14100120B75044200120B75144234
:1017430000120B75B84200120B75244400120B757E
:10175300374500120B75D74500120B75E145001292
:101763000B75604600120B75714600120B75B0467F
:1017730000120B75DE4600120B75AB4700120B759A
:10178300024800120B753B4800120B75914800127A
:101793000B75AF4800120B75FD4800120B75C84955
:1017A30000120B75164A00120B75634A00120B7573
:1017B300E64A00120B75104B00120B75464B0012D4
:1017C3000B75554B00120B75B44B00120B752C4C5B
:1017D30000120B756D4C00120B75BD4C00120B758E
:1017E300E84C00120B75024D00120B751C4D0012D4
:1017F3000B75F14D00120B75FB4D00120B75364E38
:1018030000120B75464E00120B75974E00120B75A6
:10181300AB4E00120B75CD4F00120B75E24F001249
:101823000B75755000120B75E95000120B758E5134
:1018330000120B75995100120B75FC5200120B75B7
:10184300185300120B75645300120B75D253001218
:101853000B75045400120B751E5400120B757E5445
:1018630000120B751D5500120B75685500120B7590
:10187300BB5700120B75535800120B75CA58001250
:101883000B75275B00120B753F5B00120B75425BF8
:1018930000120B754E5B00120B75625B00120B7529
:1018A3006A5B00120B75A15B00120B75955C00124D
:1018B3000B751F5D00120B75A15D00120B75215E88
:1018C30000120B75F85E00120B751A5F00120B7590
:1018D300B35F00120B75106000120B7513600012DA
:1018E3000B75826000120B75CE6100120B75E162FD
:1018F30000120B756C6300120B757F6400120B757D
:10190300466500120B75776500120B759D65001215
:101913000B75A66500120B75D56500120B758566F0
:1019230000120B75356700120B75A86700120B7553
:101933004B6800120B75BE6800120B75FD68001230
:101943000B75466900120B7599F302120B7506F4B9
:1019530002120B7552F402120B75A4F402120B75EA
:1019630024F502120B7521F702120B7551F90212BD
:101973000B7584FC02120B75B3FC02120B75D1FCC0
:1019830002120B753BFD02120B7563FD02120B7500
:1019930096FD02120B75CBFD02120B752DFE021282
:1019A3000B75ACBD04120B7528BE04120B7556BE25
:1019B30004120B759BBE04120B75FCBF04120B754E
:1019C30018C004120B754EC004120B75C7C0041265
:1019D3000B7515C104120B75A5C104120B757DC2DD
:1019E30004120B75CEC204120B7533C304120B75AC
:1019F300A6C304120B75EAC304120B7542C4041286
:101A03000B7564C404120B75F4C404120B7585C5FD
:101A130004120B75BDC504120B75E6C504120B75D4
:101A230027C604120B75C8C704120B75AAC8041283
:101A33000B7586C904120B7552AD05120B7563AD98
:101A430005120B7501AE05120B75F7FF01120B752D
:101A5300EB7F00120B7526B005120B7536B005121D
:101A63000B7551B005120B75B9B005120B754FAB61
:101A730005120B75069D02120B7539AC05120B7519
:101A8300647E00120B75867E00120B75EC7E0012CD
:101A93000B750B7F00120B75537F00120B75AC7F18
:101AA30000120B7520AA05120B7535AA05120B75CA
:101AB300A9AA05120B75C3AA05120B75DAAA05129A
:101AC3000B75EDAA05120B7505AB05120B751AAB59
:101AD30005120B75199005120B75279005120B75DE
:101AE300A09005120B75759105120B7570A9021262
:101AF3000B75C8FF04120B75CEF104120B753BF284
:101B030004120B75F3F204120B755DF304120B75DB
:101B130066F404120B75E2F504120B753AF604121F
:101B23000B758DF604120B7596F604120B75A5F65C
:101B330004120B75B8F604120B75CEF604120B756E
:101B4300D7F604120B7598EC04120B75C4EC04124F
:101B53000B755AEF04120B759AEF04120B75D6EF3F
:101B630004120B75EAEF04120B7503F004120B75E4
:101B7300F4F004120B75A6F104120B75BAF10412FA
:101B83000B7578FE02120B759CFE02120B75B5FEE7
:101B930002120B75F3FE02120B7529FF02120B756D
:101BA3005CFF02120B75C8FF02120B75CBFF02120A
:101BB3000B75D5FF02120B75E2FF02120B75D69C53
:101BC30005120B75F99C05120B75449D05120B75D7
:101BD300629D05120B757D9D05120B75E39D051224
:101BE3000B75EF9D05120B754C9E05120B75709EC0
:101BF30005120B75369F05120B75439F05120B7566
:101C0300549F05120B75B5FF03120B75CDFF03121D
:101C13000B75F9FF03120B7532F704120B7590F86D
:101C230004120B759EF804120B75B2F804120B75AF
:101C3300CFF804120B75E4F804120B75F7F80412CD
:101C43000B7579F904120B75DFF904120B7576FA2B
:101C530004120B754FFB04120B755FFB04120B751B
:101C63006EFB04120B758DAF05120B75B1AF051228
:101C73000B75D9AF05120B7501B005120B75C7A112
:101C830005120B75EEA105120B750CA205120B754F
:101C930081A205120B75EB9605120B7504970512BD
:101CA3000B751B9705120B75249705120B7542973D
:101CB30005120B754C9705120B75569705120B758C
:101CC300699705120B75F39705120B756898051242
:101CD3000B75969805120B75EA9805120B753699D4
:101CE30005120B75519905120B755B9905120B754E
:101CF300819905120B75E69905120B75D6AE05127F
:101D03000B75F8AE05120B75A4B505120B75E0D46F
:101D130004120B750CD504120B752FD504120B7519
:101D230042D504120B755DD504120B75C1D504128F
:101D33000B75EFD504120B75E7D904120B753EDB57
:101D430004120B7570DB04120B75E3DB04120B75C5
:101D530066DD04120B758EDD04120B75A3DD041210
:101D63000B75B3DD04120B75F3DD04120B7535DE51
:101D730004120B7545DE04120B758FA705120B7544
:101D83009FA705120B75C3A705120B75ECA70512C8
:101D93000B7516A805120B753AA805120B7551A8F9
:101DA30005120B757FA805120B75A2A805120B75FA
:101DB300FDB305120B75788C05120B75888C051213
:101DC3000B75A48D05120B75D68D05120B75FC8D45
:101DD30005120B75248E05120B75368E05120B75C5
:101DE300728E05120B75D68E05120B751B8F05129D
:101DF3000B75608F05120B758D8F05120B75C58FD3
:101E030005120B7594FE01120B75B4FE01120B75CE
:101E1300C7FF01120B75CAFF01120B75C3B0051280
:101E23000B7500B105120B7542B105120B7552B15A
:101E330005120B7598E504120B75D2E504120B75A8
:101E43003BE604120B755AE604120B75FAE604120C
:101E53000B7503E704120B7554E704120B757DE74A
:101E630004120B758AE704120B75FBE704120B755A
:101E730089E804120B75D7E804120B750DE90412F7
:101E83000B756EE904120B7596E904120B750DEAD6
:101E930004120B7569EA04120B75ACEA04120B7594
:101EA300E9EA04120B75FBEA04120B750DEB04123D
:101EB3000B752CEB04120B7535EB04120B7503EC4D
:101EC30004120B7543EC04120B756CEC04120B75C6
:101ED300DAA805120B75829F05120B75B89F0512C0
:101EE3000B7507A005120B7560A105120B75329BCC
:101EF30004120B75639C04120B759F9C04120B75E3
:101F0300549E04120B757E9E04120B75F7A00412E7
:101F13000B7537A104120B75CCA204120B756BA3BE
:101F230004120B75C3A304120B7549A404120B7599
:101F330081A404120B75C3A404120B7530A60412FA
:101F43000B75B0A704120B75F5A904120B7523AA20
:101F530004120B754FAA04120B7558AA04120B75C1
:101F6300AEAA04120B753EAB04120B757CAE0412C1
:101F73000B75FEAE04120B755FB305120B7548B5F6
:101F830005120B755EB505120B75788405120B757A
:101F93008D8405120B75408505120B75808505121E
:101FA3000B75998505120B75CC8505120B75198672
:101FB30005120B754D8605120B758F8605120B7571
:101FC3008E8805120B7552AC05120B75B1AC051258
:101FD3000B75EFAC05120B7530AD05120B75B6D54D
:101FE30003120B75C2D503120B7524D603120B759E
:101FF3002ED603120B75B3D603120B75EFD603124D
:102003000B75A9D703120B75BCD703120B7526D812
:1020130003120B75C1D803120B7541D903120B754B
:10202300EFDA03120B75B8DC03120B7518DE03121B
:102033000B7563DF03120B750FE003120B75C5E419
:1020430003120B75B1E503120B754BE603120B7507
:1020530070E603120B750CE703120B752AE70312E4
:102063000B7547E703120B75BBE703120B75D7E735
:1020730003120B7504E803120B758CE903120B753D
:10208300ADE903120B7530EA03120B75D6EA03129E
:102093000B751DEB03120B75ABEB03120B7510ECF9
:1020A30003120B757BEC03120B7531ED03120B75E9
:1020B3009CED03120B75D8ED03120B7540EE031262
:1020C3000B75A2EF03120B7561F003120B75F8F099
:1020D30003120B7573F203120B7510F303120B75D6
:1020E30075F303120B757CF503120B759BF6031244
:1020F3000B75CDF603120B75B4F803120B75A1FA29
:1021030003120B75C9FB03120B75E7A505120B75BB
:1021130083A605120B75A4A605120B7541B405120F
:102123000B75EEEE01120B7586F201120B758AF632
:1021330001120B75CAF601120B7572F701120B75BA
:1021430018F801120B7551F801120B75CBF8011237
:102153000B75EEF801120B7554FA01120B7577FA31
:1021630001120B75F1FA01120B7583FE01120B7547
:1021730081D602120B75D9D602120B7569D70212DA
:102183000B75E2D802120B75C2D902120B757FDAF6
:1021930002120B7596DA02120B75E8DA02120B754E
:1021A3005CDB02120B75A8DB02120B75BBDB0212A0
:1021B3000B7514DC02120B752CDC02120B75EDDEB1
:1021C30002120B7583DF02120B75BADF02120B7555
:1021D30003E002120B7509E202120B7559E20212B7
:1021E3000B7533E302120B756CE302120B758BE371
:1021F30002120B75D6E302120B75F6E302120B758E
:10220300ADE402120B75A6E502120B7501E602128C
:102213000B7541E602120B7578E702120B75F4E9B0
:1022230002120B7527EA02120B75D1EA02120B7523
:10223300F6EA02120B757AEB02120B7559EC0212D5
:102243000B7597EC02120B75FBEC02120B75AFEDDD
:1022530002120B75B2ED02120B75BCED02120B7577
:10226300C6ED02120B75E2ED02120B7554EE02126B
:102273000B758DEE02120B75A9EE02120B75D5EEDE
:1022830002120B75FCEE02120B7520EF02120B7596
:102293005BEF02120B75CEEF02120B7502F0021206
:1022A3000B7543F002120B7578F002120B7598F060
:1022B30002120B75D5F002120B750CF102120B759D
:1022C3000FF202120B7547F302120B7566F302123B
:1022D3000B75AFB305120B75C7B305120B75FAFF78
:1022E30001120B7575DE04120B75C4DE04120B7537
:1022F30082E004120B753DE204120B757BE20412BB
:102303000B7570E304120B757BE404120B759DE4EB
:1023130004120B75E7E404120B7568E504120B75E0
:102323007B6900120B759E6900120B75A26A00127D
:102333000B75EB6A00120B754E6B00120B75A26BDB
:1023430000120B75F36B00120B75696C00120B75A1
:10235300EB6C00120B75636D00120B75A96D001207
:102363000B75CB7100120B75307400120B75D3749F
:1023730000120B75467500120B75687500120B750C
:102383002B7700120B754D7900120B752C7A001206
:102393000B75B67A00120B75F37B00120B75BD7CBF
:1023A30000120B75017D00120B75B57D00120B75C4
:1023B3005BAF04120B7501B004120B756DB0041200
:1023C3000B7512B104120B7571B104120B751FB2A8
:1023D30004120B7507B504120B75ABB504120B751C
:1023E30007B604120B75CFB704120B7571B804123C
:1023F3000B759FB904120B759CBA04120B753CBB89
:1024030004120B7551BC04120B75008004120B757A
:102413006B8004120B75B38004120B75F7800412E2
:102423000B75528104120B75AF8104120B75EA818F
:1024330004120B756E8204120B75C88204120B759D
:10244300378404120B75AF8404120B75C78504120D
:102453000B75EF8504120B75FB8604120B750C8745
:1024630004120B75248704120B754D8804120B7527
:10247300708804120B75498904120B756D89041257
:102483000B75848904120B75A58904120B75C78912
:1024930004120B75A18A04120B75FB8A04120B75C7
:1024A300758C04120B75CD8C04120B75EC8C041215
:1024B3000B753E8E04120B75BD8E04120B75F48ED4
:1024C30004120B752E8F04120B759A8F04120B7561
:1024D300599004120B75379204120B75379304123B
:1024E3000B75429404120B75549504120B757C966C
:1024F30004120B758A9604120B758F9704120B75D1
:10250300319804120B75779804120B758C9804128A
:102513000B75949904120B75359A04120B75919AE5
:1025230004120B75F19905120B75319B05120B758E
:10253300F09B05120B75589C05120B759B880512B1
:102543000B75B98805120B75FD8805120B75238968
:1025530005120B754A8905120B75628905120B75F5
:102563007A8905120B75928905120B75358A051246
:102573000B75778A05120B75998B05120B75A28B58
:1025830005120B75AB8B05120B75B48B05120B750E
:10259300BE8B05120B75008005120B75FE830512A9
:1025A3000B750C8405120B75118405120B7574A43D
:1025B30005120B7586B505120B75F2B105120B7575
:1025C3001BAE05120B75F3B405120B759FFB0412BA
:1025D3000B755CB105120B7586B105120B751FB532
:1025E30005120B7585B405120B7568B505120B75CD
:1025F300F5B205120B75BCB405120B7583B2051247
:102603000B75AC9305120B75EA9C02120B75CC9CEF
:1026130002120B75A79C02120B75B79B02120B7566
:10262300529B02120B75BB9A02120B75499A021246
:102633000B75389A02120B75549902120B75709828
:1026430002120B7557A902120B754DA902120B75D5
:10265300869502120B75439402120B7543A902125D
:102663000B7539A902120B75AA9102120B756591AC
:1026730002120B750B9102120B756C9002120B7503
:10268300179002120B75448F02120B757E8E021285
:102693000B75428E02120B75D58D02120B75CD8D03
:1026A30002120B75428D02120B75D28C02120B753E
:1026B300238C02120B75188C02120B75098C0212F3
:1026C3000B75E88B02120B75B48B02120B7525A9DF
:1026D30002120B75888B02120B7568A502120B751B
:1026E3008EA302120B7552A302120B75CEA2021215
:1026F3000B75A0A102120B7590A102120B756EA0AF
:1027030002120B758C9E02120B755A8A02120B75FC
:102713004E8802120B751F8802120B750388021272
:102723000B75839E02120B75AD8702120B757487AE
:1027330002120B75EC8602120B75A08602120B7542
:10274300769E02120B75598602120B75479305127A
:102753000B758C8502120B75108502120B7568843C
:1027630002120B75C18302120B75638302120B7580
:10277300388302120B75E98202120B75AB820212C7
:102783000B75898202120B75668202120B754D82DC
:1027930002120B75058202120B754F8102120B7523
:1027A300C38002120B75799D02120B7557800212BA
:1027B3000B75008002120B75D3AB0500000080FB84
:1027C3008F000100781B87000100931C3500040073
:1027D300581C250002005C1C260002005E1C27001A
:1027E3000200601C280001006A1C290001006B1C08
:1027F300840004006C1C86000100701C2A00010088
:10280300711C2B000100721C2C000100761C2D0092
:1028130008005F1B2E000100771C2F000100781CAD
:1028230030000100791C310001007A1C32000100E4
:10283300671B33000100681B340001007B1C36005A
:102843000100691B380001007C1C39000100751C64
:1028530083000200911C63000100751B64000100EA
:10286300731C65000100741C6D000100761B710070
:102873000800571B66000100901C43000100811CE7
:1028830044000200821C45000100841C4600020033
:10289300851C470008006D1B48000100871C4B0086
:1028A3000100881C04000100941CA1000100971C76
:1028B30037000100961C88000100951C3C000100B4
:1028C3006A1B3D0001007D1C49000200891C670052
:1028D3000100771B4D0002008B1C4E0001008D1C74
:1028E3004F0002008E1C3E0001006C1B51000100D2
:1028F3007E1C520001007F1C53000100801C540009
:1029030001006B1B00000000000000000300200119
:102913006F81000000002001728100000400420169
:102923006680000005004201498000000600420164
:10293300388000000700200173810000100042036B
:102943000D1C000011002003211A000012001003C7
:102953001E1C020000002901201C060000001001BB
:10296300221A120055002101251A0207000025032F
:10297300271A0207000622012D1A02070106220365
:10298300221C040B00001B01311A040B0505210155
:10299300351A040B08052101371A040B0B0529010D
:1029A300391A040B00062101261C040B0106210120
:1029B300281C040B02062101261C040B030621011B
:1029C300281C040B040621012A1C040B0506210103
:1029D3002C1C000136360101000102010001030134
:1029E3000001040106060502000007010034080186
:1029F300000F090401010D0100FF0E08000017027A
:102A03000000190100FF1A0100011B0100FE1C0157
:102A130000081D0200001F01000120010001210226
:102A230000002301000F24020000260100012701FA
:102A33000008280200FF2A0100072B0102402C0195
:102A430000002D0100012E0100012F0100FF3001C4
:102A53000B1D310800003A0100083B01000F3C0147
:102A630000013D0100FF3E04000042040000460453
:102A730000004A0400004E04000052040000560403
:102A830000005A04000000202020202020202020C5
:102A9300282828282820202020202020202020200B
:102AA300202020202020208810101010101010103B
:102AB300101010101010100404040404040404047F
:102AC3000410101010101010414141414141010107
:102AD30001010101010101010101010101010101E3
:102AE30001011010101010104242424242420202F1
:102AF30002020202020202020202020202020202B3
:102B030002021010101020010371030103010301DD
:102B13000301030103220302030103100300030063
:102B23000300030003000300030003420300032424
:102B330003060300030003040312032503230325F1
:102B430003230304030403000300030003440300FB
:102B530003000323030003650321003503810300FE
:102B630003050300030003000300032503230301FC
:102B73000171010101010111010101310101010192
:102B8300018001100161013B0014006301730172B4
:102B930001620143010001130106013D01350004F7
:102BA30001120100010001000100010401040133CD
:102BB3000133013C0144013201360000010001658B
:102BC300010001350081010001050182018301003B
:102BD300010302710230016002110270020102025C
:102BE3000202028002100261023A00410063027392
:102BF3000272026202430200021302380000020062
:102C03000204021202000200020002000204020493
:102C130002370037003C0244020002390000020080
:102C2300026502000235028102000205028202836C
:102C330002000203007100300160001100700031D6
:102C430002200350048000100061000000140063A0
:102C530000730072006200430000001300060000CE
:102C63000000000400120000000000000000000447
:102C7300000400370037003C02440000000000005D
:102C83000000006500000035008100000005000021
:102C93000083000000030471040204600411047043
:102CA3000402040204010402041004610400041475
:102CB30004630473047204620443040004130406EB
:102CC30004000400040404120400040004000400CB
:102CD30004510464000004000400044404000400DC
:102CE3000400040004650400043504810464000541
:102CF3000400048304000436000100060000000FF2
:102D03000000000000000000000000000003FFFFBF
:102D130000000403FFFF0000FFFF0FF4010005C4E0
:102D2300040320000100000B00000000000000006D
:102D330003010F000000000000000000000000007D
:102D43000000000000000000000000000000000080
:102D53000000000000B620F220BC20FC1FC220F8B7
:102D630020C2200421C820FC1FC220F820CE20FC52
:102D73001FD420FC1FDA20FC1FE020FC1FE620FCF0
:102D83001FEC20FC1F0000000000000000000000FA
:102D93000000000000000000000000000000000030
:102DA3000000000000000000000000000000000020
:102DB300000000030020016F810000000020017269
:102DC30081000004004201668000000500420149C1
:102DD30080000006004201388000000700200173D4
:102DE300810000100042030D1C000011002003218C
:102DF3001A0000120010031E1C0600000010011F21
:102E03001C0A00000002000000040000000800008B
:102E130000100000002000000040000000800000BF
:102E23000000010000000200000004000000080090
:102E3300000010000000200000004000000000CE51
:102E43002313007A231F0080231F8086230100CED3
:102E53002302003E230300442304004A23050050B9
:102E63002306005C2336006E23FFFF000001E812F7
:102E7300061213080C130B2A1310121002EE12057C
:102E8300001307F4120CD0120DDC12647A26FF0033
:102E93000007ECFDFDFDECDCDCCCBCACAC9C9C8CFD
:102EA3007C7C6C6C5C5C5C4C4C3C3C2C2C1C1C009B
:102EB300160F00000B150B020002220F3300000E49
:102EC30001030507090B0D0F00020406080A0C0D88
:102ED3005A6967426565416C6C69616E6365303937
:102EE300150AF4D4C0A595827263615550493030F8
:102EF30016181920231A1C1E3030301718192130C8
:102F03001B1D1F3000034A49434E181A25050200B2
:102F1300011916181616182303000C0E020B040BC6
:102F23000A0708000F00393D3F373C3C362C442D3F
:102F3300020402010101010902E803000000BE04CA
:102F43000A000000000E00942E7F00E803E32EFA2F
:102F5300060303080C0510000CFF1E1E0C050828B1
:102F6300040409100304150119000A00FF0908E00D
:102F7300041237F2A2E792AF22E4F0A3F0A3F02207
:102F8300A3122F7CA3F0227F0C0208C1E0F508E412
:102F9300F509F50AF50B227401F09006C3E0640FFE
:102FA300227409120BA57F040208C1A3A3E024F530
:102FB300C39413229006E3125AE27A147B0022C0D0
:102FC30082C08390041174AEF0A37416F0A374C08E
:102FD300F0A37416F09004157496F0A37416F0A37E
:102FE3007490F0A37416F0A374CCF0A37416F0A33A
:102FF30074D2F0A37416F0A374C6F0A37416F0A3EE
:10300300747EF0A37416F090042174A2F0A37416D6
:10301300F0A374A8F0A37416F0A3749CF0A3741621
:10302300F0A374D8F0A37416F090043212506F60BA
:10303300061252D9121EE890042F12479B7408F00F
:10304300A3E4F0A3F09004D2F0900434F07C0BFDE1
:10305300F97A357B04121E407C0B7D0079007A409F
:103063007B04121E400247A474F71206A974F712D8
:103073000C3EEAFEEBFF1245C274051231387403AD
:10308300F0EE2402FAE43F123112242DFCE43FFD5A
:103093008C828D83123250123121600812399A7456
:1030A300FFF0A3F0EE242BE43F1C1CFD8C828D83E8
:1030B300A3E0C0E08A828B831245D3D0E012312192
:1030C30088828983124DCB24031258AC121FD87403
:1030D30008120EC77403F09006D81209D4740212B2
:1030E3000C1E7903EEFAEFFB12186A7402120BA599
:1030F300E9F5087007EEFAEFFB121750A9087409F7
:103103000239AAF582E43FF583126517124DC0FB1D
:103113008A828B83123130E8F0A3E9F0EE22125B4E
:1031230000123130E8F0A3E912607CE02212321B76
:103133008A828B8322F0A3E4F012314022EE240D25
:10314300F582E43FF5832274F11206A9EAFEEBFF50
:103153008C088D09890A1232258A828B8312321BCD
:10316300740F120EC712323EE824FF18E934FFF938
:1031730088828983E50A1232309006DD12322D905F
:1031830006DC12322D7411120EC712323EEE2404E5
:10319300FCE43FFD880B8A828B83E0F50C8C828DE7
:1031A30083E0250CC3950B125AFCE8F0A3E9124502
:1031B3002FA3A3A3A3A3A3A3A3E0640370081248AC
:1031C3008BF0A3E4800312353112313B7409F0759F
:1031D3000C35750D04750E00780C120B8E12352507
:1031E300121E347403120BA5750CFF750DFF780CBA
:1031F300120B92AC08AD097903EEFAEFFB12186AD1
:103203007402120BA5E9F5087007EEFAEFFB12172B
:1032130050A9087F070208C1E024FFF8A3E034FFA8
:10322300F922EE2402FAE43FFB2212325012323426
:1032330022F0E824FF18E934FFF922E0F50CA31289
:10324300325012323488828983E50CF022E088827E
:10325300898322C082C083900451E0C39408400450
:1032630074078001E08A828B83F033333354F8F997
:103273000247A474F01206A9EAFEEBFF890C8C0E38
:103283008D0F750A00A2AFE433F50BC2AF90044B68
:10329300803F12335E503712336F64037030EE2475
:1032A300F9FEEF34FFFF850882850983A3A3E02499
:1032B30005FCA3E03400FDEEFAEFFB121FD8EE2469
:1032C300FF1EEF34FFFF7410250AF50A150C124494
:1032D300FC126513E50C6006E508450970B4E50BBF
:1032E300A2E092AFA2AFE433F50BC2AF90044B80E0
:1032F3002C2402FAE43509FB8A828B83125AEB24CD
:1033030006F582E438F58312337C8A828B83123389
:1033130064A3A312337C050A150C1244FC12451155
:10332300602212336F640270F112335EE50840C10C
:1033330012365FA2E550E3850E82850F837401F098
:10334300E50C70D6E50BA2E092AF8E828F83E50A7F
:10335300F0EE24FFFAEF34FFFB803512366AA2E663
:103363002212336822125EE0A3A3A322850882857A
:103373000983125EDA12551422E08E828F83F0EEF7
:1033830024FF1EEF34FFFF221219367404120BA51B
:103393007F080208C174EC1206A974F5120C3E8969
:1033A300138A128B0F851882851983E4F004120C9B
:1033B30016121660E9F89006C2E0292434F508FADB
:1033C3007B00121E528A0A8B0BAE0AAF0BEE4F70B4
:1033D30003023519EE2402F50AE43FF50BA808EEC3
:1033E30028F8E43FF9850A82850B8312311A2404F5
:1033F300F510E43FF511851082F583E4F09006C2E1
:10340300E0FCF8C3E498F895E0F9850A82850B831C
:10341300E028F508A3E039F5099006C01257A47512
:103423000E00780C120B8E7D00AA08AB09121E3415
:103433007403120BA5AC18AD197401120EC7E0F991
:10344300E50824FFFAE50934FFFB1216668A828B2E
:1034530083E4F0EA24FFF508EB34FFF509E50FC434
:1034630054F0F99004D3E0C4333354C0F89006BC4D
:10347300E0A2E0E43313134849440F123539E5124F
:10348300C454F04513850882850983F0A808850A8A
:1034930082850B83E0FA851082851183E02AC39825
:1034A300F0850A82850B83E8F0A3E509F012353134
:1034B30012313BE4F0740A120EC7E4F0750840754C
:1034C3000904F50A7808120B8E123525121E34747E
:1034D30003120BA5851882851983E06009EE240E7B
:1034E3001246584408F0121852E9F9E4F508F509B0
:1034F3007808120B927404120C1EEEFAEFFB1218EA
:103503006A7402120BA5E97006EEFAEFFB800BEE6C
:10351300FAEFFB121E587A007B00740B120BA50204
:103523002F8A7C0B7D00EE2418FAE43FFB22124520
:10353300C6E4F0A322E0850882850983123543227D
:10354300F01257782274F31206A98A0A8B0BA2AFE2
:10355300E433F50CC2AF75080075090090044B8085
:103563002C1237865024850A82850B83A3A3126904
:10357300408E828F83A3A31252DC121858E9600A8B
:103583001235ACC2E6F08E088F0912377B123A343B
:1035930070CFE50845096006123666D2E6F0E50C01
:1035A300A2E092AF7F050208C11235B022125791F3
:1035B300E02274F01206A9EAFEEBFF8C0C8D0D7568
:1035C3000E00A2AFE433F50FC2AF75080075090012
:1035D30090044B8020850A08850B09123666D2E4D5
:1035E300F0E50812365FD2E7F0E50A24FBF582E541
:1035F3000B34FFF583E0F50AA3E0F50BE50A450B71
:103603006043E50A1243E7350BF583E0A2E750D99F
:10361300850A82850B83A3A31209D4AC0CAD0DEEEE
:10362300FAEFFB12185E7402120BA5E960BBE50802
:10363300450960A1E508240D123672640170061273
:10364300367BD2E4F0E50FA2E092AFE508450960CE
:103653000612174A750E01A90E0233931244111272
:1036630036752212366A22E508241112367222F5C3
:1036730082E43509F583E022850882850983125E99
:10368300DAE02274F21206A974FE120C3E750C00E5
:10369300750D00851882851983E4F0A3F0A2AF337A
:1036A300F50AC2AF90044BE0FEA3E0FF8035EE24A1
:1036B300FBF582EF34FF126511780C120B92EEFCCE
:1036C300EFFD7A4B7B04121E887402120BA5EEFCED
:1036D300EFFDAA18AB19121E76AE08AF099004517C
:1036E300E014F0EE4F6027123786501DEE240BF8DE
:1036F300E43FF988828983E024FFF0A3E034FFF0FC
:103703008882898312506F60A51237778099E50A02
:10371300A2E092AF900451E060319006C3E0640FE1
:1037230060069004D2E070237A297B041219429038
:10373300811C1209D07A297B041219367404120BE6
:10374300A5800874F01249C212173EAA18AB1912C9
:103753001E7C8A0A8B0BAE0AAF0BEE4F6013121658
:10376300721235ACA2E28E828F83A350D674E980A5
:10377300D4023A3C8E0C8F0DEE24FBF582EF34FF1E
:10378300F583221235B0A2E72274F71206A9EAFEE6
:10379300EBFF1216721245D0120821E9640190065C
:1037A300DF700AE02401F8A3E034008004E0F8A30A
:1037B300E0F9124C1E124FC7900451E0702190069D
:1037C300C3E0640F70197A297B0412194290811C9B
:1037D3001209D07A297B041219367404120BA5A995
:1037E300A8C2AF900451E0041237F2A2E7800DF0B3
:1037F300E9A2E7E433F8E922E508A2E092AF024A3E
:103803005E74F71206A9EAFEEBFF123839F01216BE
:1038130072EEFCEFFD7A4B7B04121E82A9A8C2AFA5
:10382300900451122F729006C3E0640F700579085B
:1038330012180A024A5E1235B0C2E42274F7120665
:10384300A974EA120C3EEAFEEBFF9006BCE060406E
:103853008518828519837401F0120EC7E412391199
:10386300120EC7AA82AB83121FD88E828F831236A1
:1038730081C0E0740A120EC7D0E0125B11740B1200
:103883000EC7AA82AB83121882AA18AB1912259607
:1038930074160239AA74F71206A9EAFEEBFF121690
:1038A30054E9F974DC69601E74DD69601974E469B4
:1038B300601474F369600F74DE69600A74DF696011
:1038C3000574DB697007EEFAEFFB121810024A5E0B
:1038D30074F71206A974EB120C3EEAFEEBFF85188F
:1038E300828519837406123911120EC7AA82AB831B
:1038F300121FD8125B16740A120EC7AA82AB831268
:103903001882AA18AB1912259674150239AAF0EE7B
:103913002413FCE43FFD74022274F71206A974F722
:10392300120C3EEAFEEBFFEE242D124658606512A0
:1039330041E9AA18AB19121FD87408120EC77403F1
:10394300F09006D81209D412399A1209D49006EBD2
:10395300E0F97404120C1EEEFAEFFB12165A74040B
:10396300120BA5E9F974DC69602374DD69601E74C8
:10397300E469601974F369601474DE69600F74DFBD
:1039830069600A74E869600574DB697007EEFAEF31
:10399300FB121810023101EE12399F22242BF582FB
:1039A300E43FF583227403120BA5024A5E74F212FC
:1039B30006A98A088B09750C00750D00750AE7A224
:1039C300AFE433F50BC2AF90044B80031237771289
:1039D3003A34603512378650F3124655640170EC61
:1039E300EE242FF582E43F123BE3E06870DE780CAF
:1039F300120B92EEFCEFFD7A4B7B04121E887402CD
:103A0300120BA5900451E014F0E50BA2E092AFEE87
:103A13004F6013EEFAEFFB12167279F0EEFAEFFB3A
:103A2300121810750A00A90AAA08AB091218108007
:103A33000DE0FEA3E0FFEE4F227402120BA57F06FA
:103A43000208C174F41206A974F7120C3EEAFEEBE5
:103A5300FF8E828F83A3E064F37003023AF08E82B9
:103A63008F83A3E064DF7003023AF08E828F83A317
:103A7300E064E860788E828F83A3E064DB606E127B
:103A830016B4E9F508705EEE240E1246586056121D
:103A93003AFA1216FCEA4B604C7408120EC7123B3A
:103AA300041209D47508FF7509FF7808120B928E6A
:103AB300828F83A3A3A3A3A3A3A3A3E0F9740412F4
:103AC3000C1E12165A7404120BA5E9F50874F3655B
:103AD30008601274DF6508600C74E865086006749A
:103AE300DB6508700F8E828F83A3E508F0EEFAEF93
:103AF300FB1216C0022FA4EE240FFAE43FFB790950
:103B03002274021262D974FFF0A3123B1122123BFA
:103B13001522124DD4A3A32274F51206A98A088B89
:103B2300097E008A828B83A3A3A3A3A3A3122FAE30
:103B330040027EE88A828B83A3A3A3A3A3A3A3A3A8
:103B4300A3A3E0C3941040047EE880138A828B838E
:103B5300A3A3A3A3A3A3A3A3A3A3E0640F600A90B7
:103B630004AFE0540870027EE8EA240BF582E435E2
:103B730009123BE3A3A3A3A3A3A3A3A3E0C3985066
:103B83000CEA240B123672640F60027EE89006DCA6
:103B9300E0F47003A3E0F470027EEC7A237B00125E
:103BA3001EE29004321252EC90043212506F6029DC
:103BB300850882850983A3A3A982AA8389088A0920
:103BC300750A007808120B8E7C237D001252D912DD
:103BD3001E347403120BA580027E1AEEF902647A76
:103BE300F583E0F88A828B83A3A32274F51206A9D6
:103BF300EAFEEBFF8E828F83A3A3A3A3A3A3A3A3B6
:103C0300E09006C31261BC9006DE1261A29006BE6C
:103C13001261C19004D3F0F9121CA89004D3E060A0
:103C230018EE2404FAE43FFB7950121C90EE2406AC
:103C3300FAE43FFB79E1121C909004D2122F9A60B0
:103C4300047401800274009004341261A8120B8E74
:103C53007C0B7D007A357B04121E347403120BA592
:103C6300EE2418F508E43FF5097808120B8E7C0B57
:103C73007D007A407B0402647274F71206A9EAFE9F
:103C8300EBFF8E828F83A3E070061252D91216BA0D
:103C93008E828F83742C1249C212181C024A5E74DE
:103CA300F71206A9EAFEEBFF90043212506F600D83
:103CB3001252D9900432E4F0A3F0121EE88E828FE0
:103CC3008374081249C2122596024A5E74F61206DC
:103CD300A99004D2E06013900434E0700D123CF01C
:103CE30012166CEA4B6003121750025E1C9006BE5C
:103CF300E0FB9006DEE0FA9006C3E0F92274F412CA
:103D030006A974E7120C3EEAFEEBFF750B018E82E7
:103D13008F83A3A3A3A3A3A3A3E0A2E25068EE24EB
:103D23002BF582E43F12693E123DBE121678E9700C
:103D330055908094E064017005750B008048123D36
:103D4300C6120B8E7C0B7D007411120C16121E34DE
:103D53007403120BA5121852E9FA740E120C0E8892
:103D63000889097808120B927508307509007808DC
:103D7300120B9212399A1209D4125AB279011218FB
:103D8300707406120BA58518828519837410123975
:103D930011120EC7AA82AB83121FCC12399A125A80
:103DA300DE740B120EC7124FC7740D120EC7E50B4C
:103DB3001248351225967419022FA6EE2413FAE43D
:103DC3003FFB22EE24081261B022C082C08390041C
:103DD300D3E060031218C40247A4C082C0839004D6
:103DE300CA7411F0A37404F0A37415F0A37404F05F
:103DF300A37421F0A37404F0901B977498F0A37438
:103E03002CF09004B4744EF0A37416F0900456741E
:103E130084F0A37416F0900458748AF0A37416F017
:103E23009004AFE044028001E4F00247A4C082C0E2
:103E330083EAFCEBFD7903024E40C082C083EAFCB7
:103E4300EBFD7905024E40C082C0837908025FAD65
:103E5300C082C08374FE120C3E90045E7438F0A3DB
:103E63007417F09004607432F0A37417F0800D7A25
:103E73004B7B04121E7C12482B12184090044B12E9
:103E8300506F70EB90044D12506F600F7A4D7B04AE
:103E9300121E7C12482B12184080E990044BE4F068
:103EA300A3F0900451122F7D740280027411120B3F
:103EB300A50247A474F61206A9E9FF742829F5821E
:103EC300E4342FF583E493FEFA7B00121E52EA4B8F
:103ED3006011EA2E124FBD8A828B83A3A3A3A3E4AE
:103EE300F0802C7A027B00121E52EA4B601D74FC98
:103EF3002FF582E4342EF583E4938A828B83F0A337
:103F0300741AF09004AAE0F9121E5E7A007B000294
:103F13005E1CE9FC740629F8EAA2E0501EE875F07D
:103F23000A84E5F0F96014740A28C399F8E9C39484
:103F3300054004740A28F8740B28F8ECC394134062
:103F4300047A1480027A06EA2879002409F85001D9
:103F5300097A0A7B00120447E8F9020B72C082C097
:103F6300839004AFE05402600A12259CE96004794F
:103F730001800279000247A4C082C0839004AFE0AD
:103F830054026016900451E0700C12506C600BE008
:103F9300C812450950047901800279000247A4C080
:103FA30082C083908091E0F8900453E0C398500559
:103FB300121E5280047A007B000247A4C082C08391
:103FC30012184079000247A474F71206A974FE126E
:103FD3000C3E851882851983EAF0A3EB12413AA3BC
:103FE300A3A3A3A3E0600A14606024FE60690240F7
:103FF300BB9006C3E0640F6018121816E9701285AF
:1040030018828519831252DC90045A1245D3120880
:10401300219006EBE0C0E0851882851983124D9E3E
:10402300D0E012413A74141262D51269407A4D7B82
:1040330004121E76A8A8C2AF900453E0041252F2F1
:10404300792012180A74020239AA85188285198305
:10405300125EE2741580D085188285198312411D82
:10406300A3A3E06053851882851983E02402F8A393
:10407300E03400F988828983126713E0C0E0851871
:1040830082851983E0FCA3E0CC2406F582E43CF5A9
:1040930083D0E0125B1E888289831252EC851882DA
:1040A300851983124405851882851983601312418B
:1040B30022600512412A4043AA18AB191218408006
:1040C3008412412260F212412A501C124519FA85CA
:1040D3001882851983124124F87432124FB8342F91
:1040E300F583E4936A60148518828519831241224B
:1040F300640870C4124519640870BD12451914127E
:104103004142240AC0E08518828519831245D3D021
:10411300E01241420402402AE0F8A3124DEB22E0F0
:10412300F8A3E012414922851882851983125AEFB8
:1041330012414AC3940A22124154F58388822212FF
:10414300415412414922C82406F582E438F583E03C
:10415300221262D9E0F8A3E022C082C083900462F5
:1041630012506F6008125EE3120821800279000288
:1041730047A474F71206A9EAFEEBFF12314074015B
:10418300F0EE2430F582E43FF58312584C12311AD5
:104193002432124658C0E0EE2413F582E43FF5833F
:1041A300D0E0F0EE2433124658C0E0EE2414F5823A
:1041B300E43FF583D0E0F0EE242CF582E43FF58371
:1041C3001209D41241E9EE242E124658F912186A44
:1041D3007402120BA5E9F5087007EEFAEFFB12174C
:1041E30050A908024A5EEE2423FCE43FFD22C0826C
:1041F300C083121816E9600479208002790102470E
:10420300A4C082C083EA1243E71242A8D2E0023E6E
:104213002CC082C0831242A2640170111242AD40CD
:104223000C8A828B83A3E0F9121810806FEA2410A2
:104233001242A5A2E650128A828B83A3E0F990046E
:104243005C1245D312082180531242A26401700DFF
:104253001242AD50088A828B83743080368A828BF7
:1042630083A3E0641B8A828B83700474228024A35B
:10427300E0700D1242A2F874F1124FB8342E800B85
:104283001242A2F874FC124FB8342EF583E4938AD9
:10429300828B83F09004AAE0F9121E5E0247A4EA1F
:1042A300240DF582E43BF583E022EA1244113BF549
:1042B30083E0A2E32274F71206A9E9FE12506C70A0
:1042C300030243DEEE6011741B6E7013E0C81243E9
:1042D300E1640570030243A9125ED2E40243AD74A4
:1042E300E96E70621243FD700B1225A2E96005129C
:1042F3004417606279EE121C129004541243FA9030
:104303000454603B12441A900454700B1243FA1481
:10431300F0121DD40243DE124405C2E712452512F2
:1043230043E16403700C125AE81243E712414FD27F
:10433300E2F079ED121C121243ED1208218075127E
:104343005ED574E9806474E16E703E1225A2E96063
:104353005512441770509006E5E0C0E0125AE82465
:1043630012F582E438F583D0E0F09006D4E0C0E0A3
:1043730090045412411B12411BD0E0F09006D4E08C
:1043830004F07901121DBC8052741C6E70189004E5
:10439300541252DC9004641245D312082190045441
:1043A300E4F0A3F08035125ED2EEF0900454125282
:1043B300DC12173E125AE8125ABAE0548060109089
:1043C30006EBE0F9121CCC9006EAE0F9121CC0904F
:1043D3000454E4F0A3F0791012180A024A5E240D83
:1043E30012414C222411F582E4229004541252E02B
:1043F300900458125EDC22E0F8A3E0C824121241B4
:104403004C22E0F8A3E0C812441112414F222410B9
:10441300F582E422900454125AEF125ABEE0540477
:104423002274F41206A9750A00750B00A2AFE433D7
:10443300FFC2AF12506C60030244E11245D0120870
:1044430021E94410F890044B800985080A85090B7B
:104453001244FC12451170030244E1123666586897
:1044630070E8780A120B92AC08AD097A4B7B041200
:104473001E887402120BA5900454E508F0A3E50905
:10448300124525124509405D900452E014F0EFA255
:10449300E092AF900454E0240EF8A3E03400F988CE
:1044A3000889098882F5831252DC90045412451F4F
:1044B300F9121702E990044FF012452DE054809051
:1044C30004546026125AEB241312414CF9121CCCEB
:1044D300125AE8241412414CF9121CC08018EFA29E
:1044E300E092AF801190045180A1124405A2E1B380
:1044F300E433F9121DBC022FA9E50824FBF582E57C
:104503000934FFF58322241112414CA2E7221265DC
:1045130017E508450922851882851983123368A394
:10452300E022F0900454125AEF22A3E4F0850882AB
:104533008509832274F71206A9EAFEEBFF12183AE3
:10454300EE2410124658A2E3400C12465564017043
:104553000590808F8003908090E0F9EEFCEFFD7A68
:104563004B7B04121E8EE96046EEFAEFFB90045E6D
:104573001245D3120821EE240E124658540470201B
:10458300A8A8C2AF900452E0041252D2FAE8A2E7FC
:1045930092AF1245C2A3E05401702112174A801C46
:1045A300EEFAEFFB9004561245D3120821800D8ECC
:1045B300828F83A374F11249C212173E024A5E121C
:1045C30045C622EE240EF582E43FF5832290046073
:1045D300125EDC22C082C08312174A0247A474F71A
:1045E3001206A9EAFEEBFF79009004AFE0540270D3
:1045F3000CEE24301246585404600279E89004AF5C
:10460300E05460700CEE2430124658540260027974
:10461300E88E828F83A3A3A3A3E0F8908095E0C3E1
:1046230098500279E8EE242E124658700CEE242B93
:10463300124658700479F5800BE9700512172CE9BE
:10464300F9E96007EEFAEFFB121810024A5E34FF35
:10465300F509EE240DF582E43FF583E022C082C024
:10466300838A828B83740DF01225960247A4C0823D
:10467300C0838A828B83E4F0A3F0EA24301242A53C
:10468300540490808F7012E0F8900452E0C3984075
:104693001279F11218100247A4E0F8900451E0C314
:1046A3009850EE9004AAE0F9121E5E80E974F612A7
:1046B30006A9E9FE244CFAE43400FB121E52EA4B2D
:1046C3006012EE8A828B83A3A3A3A3F0EA244C1285
:1046D3004FBD80047A007B00025E1CC082C08390C1
:1046E30004667498F0A37417F0A374C8F0A3741746
:1046F300F0A3749EF0A37417F0A374A4F0A374172B
:10470300F0A374C2F0A37417F0A374B6F0A37417E4
:10471300F0A374B0F0A37417F0A374CEF0A37417CE
:10472300F0A374D4F0A37417F0A374DAF0A374178E
:10473300F0A374E6F0A37417F0A374AAF0A374179C
:10474300F0A37492F0A37417F0A3748CF0A37417FE
:10475300F090048274BCF0A37417F0A374E0F0A388
:104763007417F0A374FAF0A37418F0A374ECF0A315
:104773007417F0A374F2F0A37417F09004A6E4F096
:104783009004A9F090049212479B7402F090049B4A
:1047930012479B7401023E2C740AF0A37418F0A311
:1047A30022D083D082020B7274F51206A974F1121F
:1047B3000C3E8518828519837402F07401120EC7AA
:1047C300E9F060047AFF7BFF7402120EC71252EC09
:1047D30075089E750904750A007808120B8E7C0B08
:1047E3007D007407120EC7AA82AB83121E347403B2
:1047F300120BA5AA18AB19122596740F02647774CD
:10480300F71206A974FD120C3E851882851983746C
:104813000AF07401120EC7E9F07402120EC7EA120D
:1048230048351225960239A8851882851983EAF03E
:10483300A3EBF0AA18AB192274F61206A974F712A7
:104843000C3EEAFEEBFF12488B1231387402124918
:10485300B3AA18AB19121FCCEE242E123106243042
:104863001258B9120B927402120C1E79831A1AEFA2
:10487300FB12186A7402120BA5E9F5087007EEFA29
:10488300EFFB121750025E151245C674012274F035
:104893001206A9126360120E587808790C120542A9
:1048A3007808120B8A7A957B0402338B74F4120610
:1048B300A974C6120C3E9006C3E0640F60108518FD
:1048C30082851983742E12483512181C80277A8C1E
:1048D3007B04121942122FB712044F88088909E486
:1048E300F50AF50B7808120B8A7A8C7B04121936B9
:1048F3007404120BA5743A022FA674F51206A9EAE2
:10490300FEEBFF8E828F83A3E0F8600302499CEEE7
:10491300242D12465864026007E06403600278E8BD
:10492300EE2423F582E43FF583122FB0400478E8A8
:10493300806AE87064EE2423FAE43FFB79E1121CF9
:1049430090EE242EFAE43FFB7950121C90EE242DB6
:104953001246586402700E125AA8125ADE9006D2FA
:10496300124FC780129006D274FEF0A3041249B30B
:104973007AC97B06121FD8EE2418123DC9120B8E7A
:104983007C0B7D007A9E7B04121E347403120BA5EC
:10499300EEFAEFFB121786E9F8E86011E88E828FD2
:1049A30083A3125D0A74171249C212181C02647A97
:1049B300F0EE2425FCE43FFD228E828F837429F0E0
:1049C300EEFAEFFB2274F61206A974F7120C3E906E
:1049D30004A9E0703B7401F0F9121D86AA18AB1903
:1049E30012184C75089E7509047808120B92750805
:1049F300017509007808120B929006D81209D47435
:104A030006120C1E7A0379051218707406120BA590
:104A1300025E1774F71206A9EAFEEBFF7901121D75
:104A23008C8E828F83E064207004A374EBF0900477
:104A3300A9E0A2E25003C2E2F0E0A2E15008124C66
:104A430060121780800C8E828F83742A1249C212DF
:104A5300181C8007EEFAEFFB1218B87F010208C199
:104A630074F41206A974FE120C3EEAFEEBFF790100
:104A7300121D8C7A8C7B041219427A957B041219CD
:104A830042124DAA851882851983124DDEE0F50B7B
:104A9300700FAA18AB197953121C90126507121CD8
:104AA30090123DC6120B8E7C0B7D007A9E7B041206
:104AB3001E347403120BA58518828519831252DCE8
:104AC300A90B12177A9004A9E0A2E1500C7A008E88
:104AD300828F83A3E0F91217809004A9E4F0740293
:104AE300022FA674F71206A9EAFEEBFF8E828F83CC
:104AF300A374EBF09004A9E0A2E150077A0079EBEC
:104B0300121780EEFAEFFB1217B6024A5E74F71221
:104B130006A9EAFEEBFF7901121D8C7A8C7B041245
:104B230019427A957B041219429004A6E4F090048A
:104B3300A9F07AFF7BFF8E828F83A3E0F912177AA5
:104B4300024A5E74F71206A9EAFEEBFF1217B002DF
:104B53004A5774F71206A9EAFEEBFF7901121D8C7E
:104B63008E828F83A3A3A3A3E060047400800274E6
:104B7300EB124BA75003C2E2F0E0A2E15008124C43
:104B8300A91217808014A2E050108E828F83742A9A
:104B9300F0A374EB1249C212181CEEFAEFFB1217C2
:104BA30062024A5E8E828F83A3F09004A9E0A2E2A0
:104BB3002274F61206A9EAFEEBFF9004A9E0D2E103
:104BC300F07901121D868E828F83A3E0703C121848
:104BD30052E9FAEE240DF508E43FF5097808120BC3
:104BE300927508017509007808120B92124C1E1277
:104BF30009D4EE2402FCE43FFD7905121870740613
:104C0300120BA5E98E828F83A3F08E828F83A3E09C
:104C130060067A00F9121780025E1C124C2222EE03
:104C2300240BF582E43FF5832274F71206A9EAFE0A
:104C3300EBFF7901121D8C8E828F83E06420700458
:104C4300A374EBF09004A9E0A2E25003C2E2F0E007
:104C5300A2E15006124C60121780024A5EC2E1F0D4
:104C63007A008E828F83A3E0F92274F71206A9EAF1
:104C7300FEEBFF7901121D8C7A8C7B041219428E94
:104C8300828F83A3A3A3A3E060047400800274EB68
:104C9300124BA75003C2E2F0E0A2E15006124CA966
:104CA300121780024B9DC2E1123B11A3E0A2E4E480
:104CB30033FA8E828F83A3E0F92274F71206A9EAEE
:104CC300FEEBFF7901121D8C8E828F83A374EB128E
:104CD3004BAC5003C2E2F0E0A2E15006124C60126A
:104CE3001780024A5E74F71206A9EAFEEBFF7A8C7C
:104CF3007B04121942EEFAEFFB1217DA024A5774D9
:104D0300F71206A9EAFEEBFF7A8C7B04121942EE36
:104D1300FAEFFB1217DA024A5E74F71206A974EF70
:104D2300120C3EEAFEEBFF125AB27AC97B06121F3F
:104D3300C6E960628518828519837409F0740112CB
:104D43000EC774EFF0124DAAF87402120EC7E812E0
:104D53004DDEA3A3E0C0E07404120EC7D0E0124DF1
:104D6300CB640870158E828F83A3A3124D9EE0C07F
:104D7300E07405120EC7D0E080067405120EC7E476
:104D8300125B117406120EC7AA82AB83121882AA91
:104D930018AB1912259674110239AA125AEF240777
:104DA300F582E438F58322124DC0FB8A828B83128D
:104DB3005AE288828983E0FCA3E0F9EC22EE240224
:104DC300F8E43FF9E8FAE922124DCF22124DD4E07C
:104DD30022F08E828F83A3A3A3A322F0A3E9125B05
:104DE30000124DE822E0F8A3125EE3A3A322C082DF
:104DF300C0831218C40247A4C082C0839004C6743F
:104E030066F0A37404F0A37482F0A37404F0901BFF
:104E1300917472F0A3742BF0A374D4F0A3742BF0E9
:104E23009004B27474F0A37417F09004AFE04401DB
:104E3300023E2CC082C083EAFCEBFD7902121828E3
:104E43000247A474F61206A974FE120C3E9004AB3A
:104E530012506F60077AAB7B041218409004B1E4E0
:104E6300F09019B012506F60268007AA18AB191280
:104E730018409004AAE0F9121E6A8A088B09A80850
:104E8300A909851882851983124FC7E84970DC7414
:104E930002025E1974F71206A9E9FA7B009004AACC
:104EA300E0F9121E94024A5E74F71206A974F01216
:104EB3000C3EEAFCEBFDE9FE8C828D83E0F8741D69
:104EC300124FB8342FF583E493C0E07401120EC778
:104ED300D0E0F0640B700DEE8C828D83A3F012187A
:104EE300A6024FABE07003024FAB640C6003024FAA
:104EF3009C741A6E700B7404120EC7E4F0A3024F75
:104F03009B7404120EC7ECF0A3EDF0EC242F124FA8
:104F1300B0C0E07403120EC7D0E0126073120EB07B
:104F23007406120EC7120E988C828D83125AD57492
:104F33000A120EC7124FC7EC240E124FB054106062
:104F430009851882851983E48013EC2412124FB06B
:104F5300F89006E5E0C398851882851983F0E0C0D0
:104F6300E0740C120EC7D0E0F0EC2415124FB0C061
:104F7300E0740D120EC7D0E0F0EC2416124FB0C04F
:104F8300E0740E120EC7D0E0F0EC2417124FB0C03D
:104F9300E0740F120EC7D0E0F07402120EC7EEF0E9
:104FA3007401120C1612259674100239AAF582E4C4
:104FB3003DF583E02228F582E422F8E43BF98A8276
:104FC3008B83A3A3E8F0A3E9F022C082C0839004FB
:104FD300B1E0640370047901800279000247A4748C
:104FE300F71206A99004B1E012505912693E8A8261
:104FF3008B83E0C2E7F025E0F8EC124FB83DF58370
:10500300A3E493FE125059F58312506F6005EE909E
:1050130004B1F08A828B83E0125065EC28F582EDAF
:1050230039F583E493FCC4540F25E0F874C0124FA0
:10503300B83404F58312506F70051218948014EC81
:10504300540F25E0FCE82CF582E439F5831245D3AF
:10505300120821024A5E125065748F28F582741B70
:10506300392225E0F8E433F922900454125AE2E895
:10507300492274F11206A974FE120C3E890AEAFE53
:10508300EBFF125171FA7B00121E528A088B09EA58
:10509300450960388A828B83E50AF0A3E4F08E0C1D
:1050A3008F0DF50E780C120B8EA80A12517EEA248E
:1050B30002FAE43509FB121E347403120BA5AA0885
:1050C300AB099004AAE0F9121E5E8012851882854E
:1050D3001983E50AF0791AAA18AB19121810740289
:1050E300120BA502321674F21206A974FE120C3EBC
:1050F300890B8A088B09125171F50AFA7B00121E7B
:10510300528A0C8B0DAE0CAF0DEE4F604A8E828F20
:1051130083E50BF0A3E4F0A80AEE28F8E43FF98E48
:10512300828F83124FC58E828F83A3A3A3A3E4F040
:10513300F50A7808120B8EA80B12517E123529122C
:105143001E347403120BA5EEFAEFFB9004AAE0F9E8
:10515300121E5E79008014851882851983E50BF091
:10516300791AAA18AB19121810791A023A3C740763
:1051730029F582E4342FF583E49322741228F5820F
:10518300E4342FF583E493FC7D0022C082C083E9DD
:105193009004AA023E2C74F61206A974FE120C3E69
:1051A300EAFEEBFFEE542070378040A8A8C2AF9010
:1051B3000453E0141252D2F508E8A2E792AF8A82B0
:1051C3008B831252C99004AD1252EC12181C85182D
:1051D30082851983E0641560077AAD7B0412184059
:1051E3007A4D7B04121E7CEA4B70C0EF5480701220
:1051F300801C9004AD1252EC12181C7AAD7B041281
:1052030018409004AAE0F9121E6AEA4B70E4EE54C7
:1052130010600E851882851983742D124835121873
:105223001CEEA2E0500E851882851983742412485F
:105233003512181CEE5402600E851882851983748A
:105243002512483512181CEE5404600E8518828509
:105253001983742612483512181CEE5408600E8503
:105263001882851983742812483512181CEE54408D
:1052730060107401120EC71262D4742C12483512D6
:10528300181CEE548060107401120EC71262D4749D
:105293002F12483512181C9004AB12506F6020A8CF
:1052A300A8C2AF9004AB1252DC9004ABE4F0A3129B
:1052B30052F21252EB12181C7AAD7B041218407A88
:1052C300007B00024E92E0851882851983F022F05C
:1052D300E8A2E7E433229004321252E022E0FAA378
:1052E300E0FB22A3A3A3A3A3A3EAF0A3EBF0221260
:1052F30052D2FEE8A2E792AF22C082C0839004ADEF
:10530300125ADEEA687002EB6970079004ADE4F0AC
:10531300A3F00247A474F71206A9EAFEEBFFEE4FCF
:105323007003121A4AA2AFE433F508C2AF8E828F1C
:105333008312506F6028E824FBFAE934FFFB9004E2
:10534300AD126940E86C7002E96D70079004ADE43A
:10535300F0A3F08E828F83E4F0A3F0121EE80237ED
:10536300FBC082C0839004D47488F0A37418F0A3A4
:10537300749AF0A37418F0A374A0F0A37418F0A3A4
:10538300745CF0A37417F0A374A6F0A37418F0A3CD
:105393007456F0A37417F0A37462F0A37417F0901B
:1053A30004E274D6F0A37418F0A374ACF0A37418D9
:1053B300F0A374B2F0A37418F0A374BEF0A374182E
:1053C300F0A374B8F0A37418F09004D3023E2BC07A
:1053D30082C0839006D2E064FE7003A3E0F47009F8
:1053E3007CC97D06121FCC80158A828B83A3A3A35D
:1053F300A3A3A3A3A37402F0125554124FC70247E9
:10540300A4C082C0839006DCC3E094FEA3E094FFB3
:1054130040047903800279020247A4C082C0831248
:10542300555F8C828D8312551468703974026870CD
:105433001C8A828B8312546DE06870298A828B8365
:10544300A312546DA3E068701C7901801A74036879
:105453007013EC2405FC50010DEA2405FA50010BEE
:10546300121FD2800279000247A4A3A3A3A3A3E03F
:10547300F88C828D83A3A3A3A3A32274F61206A997
:105483007E00740A120EC7E0125508FF8A828B83CE
:10549300A3A3A3A3A3A3A3A3E06F706474026F7079
:1054A3004E8A828B83C082C08388828983A3A3A30D
:1054B300A3A3E0F50888828983A3A3A3A3A3A3E0FE
:1054C300FBAA08D083D082E06A7003A3E06B70303C
:1054D30088828983A3A3A3E0FA88828983A3A3A3F1
:1054E300A3E0F9EA6C7002E96D70157E0180117416
:1054F300036F700CE82405FCE439FD121FD2E9FEAA
:10550300EEF9025E1CF8A3E0F98882898312551430
:1055130022A3E01313543F540322C082C0838A8220
:105523008B83A3A3A3A3A3A3A3A3E0640270141276
:105533005554E0687003A3E06970047901800F7922
:1055430000800BEAFCEBFD7AC97B06121FC60247FB
:10555300A49006D2125AE28A828B83228A828B8398
:10556300125514F82274EC1206A9EAFEEBFF8C1212
:105573008D13750A008C828D83A3A3A3A3A3A3A376
:10558300A3E0F510E9A2E75008750CFF750DFF8045
:10559300069006D81257A4E9C2E7F511EE240E12BD
:1055A30046585420600712578574088004125785A3
:1055B300E41257AC5404600712578D7480800512AF
:1055C300578D74101257AC5410600612575DE48067
:1055D3000B9006E5E0C0E012575DD0E01257ACA295
:1055E300E05003750A20540860067410450AF50A52
:1055F3008E828F83A3A3E024FFF508A3E012465114
:10560300C39402E0400B640B6005E0141235397457
:1056130003450AF50A750B009006F8E06401701162
:105623008E828F83A3A3A3A3E0C394674003750B68
:105633001085110E750F00740E780E120D21E50FF3
:10564300450BF50B7414120EC7E0F50EA3E0F50F2E
:1056530074026511700E9006DD1235389006DC1267
:10566300579B80137403651170121257677CEC7D8E
:1056730006AA08FB121FD81257748004E51160288C
:10568300E5106014E50E650C7004E50F650D7008F8
:105693007440450AF50A8010850882850983E50D63
:1056A3001257B2E50C12353F85100C750D00740AC4
:1056B300780C120D21E50D450BF50B740265107086
:1056C30015851282851383A31235388512828513BB
:1056D3008312579B8013740365107012125767ACC3
:1056E30012AD13AA08FB121FD81257748004E510D9
:1056F3006010850882850983E50F1257B2E50E1203
:10570300353FA808A909E824FFF508E912465170B6
:10571300059006C880039006D4E0FA04F0EA888274
:10572300898312452FE50B1257B2E50AF0EE2404E4
:10573300F8E43FF9123225AC088A828B83E0F50A3C
:1057430088828983E0250AC39C125AFCECF0A3E506
:1057530009125C78E4F0F9022F8AEE2412F582E450
:105763003FF58322E50824F9F508E50934FFF50937
:105773002212577822E50824FFF508E50934FFF5DE
:105783000922EE1244113FF5832212579122EE248F
:1057930011F582E43FF58322E0850882850983F0D1
:1057A30022E0F50CA3E0F50D22F01245C6E022122B
:1057B3003543850882F5832274EE1206A9890A8A85
:1057C3000B8C108D11750C1A7416120EC7126513FB
:1057D300AA08FB1216FC8A0E8B0FAE0EAF0FEE4F0C
:1057E30060607414120EC712584CE8F0A3E912312A
:1057F3003BE50AF085080C85090D750E00780C123F
:105803000B8E123525121E347403120BA57412125B
:105813000EC71209D4AC10AD11A90BEEFAEFFB12AF
:10582300186A7402120BA5E9F50C7016E50A24F93F
:1058330060031470061235ACD2E5F0EEFAEFFB12FA
:105843001750A90C7F0A0208C1125EF11245C72244
:1058530074F61206A974F7120C3EEAFEEBFF780108
:10586300EE242F124658600278051245C2E8123121
:105873003874041258AC121FCCEE242C12310624B7
:105883002E1258B9120B927402120C1E79031A1AB3
:10589300EFFB12186A7402120BA5E9F5087007EE04
:1058A300FAEFFB121750025E15F0EE2423FCE43FDF
:1058B300FDAA18AB1922F582E43FF5831232501288
:1058C3004DCF04F078082274F21206A98A088B09D6
:1058D300ECFEEDFF8A828B837405F0EE24321246D0
:1058E300588A828B83A3A3F0EA2403F50AE43509DB
:1058F300F50B850A82F5831257A4125AA8120EB02B
:10590300E50C1243E7350DF583120E98125AB2AA2D
:105913000CAB0D121FCC850A82850B83125EE9FA4C
:10592300A3E0FB88828983A3A3A31252E6EE242F6C
:10593300124658C0E0125AC7D0E0125B062415F590
:1059430082E438F583E4125B06125ABAE4125B115F
:10595300850A82850B83E02416FAA3E03400FB1248
:1059630018828E828F83A3A3A3A3A3A3A3E0C0E083
:10597300850A82850B83125AEB240DF582E438F5F0
:1059830083D0E0125AF5FAA3E0FB850A82850B83E4
:10599300125ADEE8240BFCE439FD8A828B83E08C07
:1059A300828D83F0A3E4125B1EE0F50B8C828D8362
:1059B300A3E0450B125AFCA3E0FCA30A0AAB83A2A3
:1059C300E7E433C0E0E8240FF582E439F583D0E05F
:1059D300F074075C600478018002780075F003744A
:1059E300075CA428F8EA28FAE43BFBE5082405F859
:1059F300E43509F98A828B83123250125B1E8508C3
:105A0300828509831252E688828983E0F50A540766
:105A130025E0FCE50AC4540F5407F50A750B00741E
:105A230003780A120D21EC250AF8EA28F8E43BF979
:105A3300850882850983A3A3A3A3A3A3A3A3A3E8A0
:105A4300F0A3E9124DCBFA8E828F83A3A3E02AFA47
:105A5300A3E03400FBC3EA98EB9940308E828F8336
:105A6300A3A3E0F8850882850983A3A3A3A3A3A323
:105A7300A3A3A3E0FA8E828F83A3A3A3A3E0C39A75
:105A830028850882850983A3A3A3801085088285BE
:105A93000983A3A3A3A3A3A3A312452DA3A3A3A3F2
:105AA300A3F0023A41EE2425F582E43FF58322EE8A
:105AB3002413FCE43FFD22125ABE22240EF582E495
:105AC30038F58322125ACB22E82410F582E439F503
:105AD3008322A3A3A3A3A3A3A3A3A3125AE222E013
:105AE300F8A3E0F922900454125AEF22E0F8A3E05D
:105AF300C822125D0AA3A3E022125B0022F08A826D
:105B03008B8322F0850A82850B83125AEF22F012CF
:105B13005B1622EE2408FCE43FFD22125B00A3AADD
:105B230082AB832274F51206A98C088D09750A00CD
